{
  "contractName": "ConfidentialContract",
  "abi": [
    {
      "anonymous": false,
      "inputs": [
        {
          "indexed": true,
          "internalType": "uint64",
          "name": "process_id",
          "type": "uint64"
        },
        {
          "indexed": true,
          "internalType": "address",
          "name": "user",
          "type": "address"
        },
        {
          "indexed": false,
          "internalType": "address[]",
          "name": "authorities",
          "type": "address[]"
        }
      ],
      "name": "AuthoritiesNotified",
      "type": "event"
    },
    {
      "anonymous": false,
      "inputs": [
        {
          "indexed": false,
          "internalType": "uint64",
          "name": "",
          "type": "uint64"
        },
        {
          "indexed": false,
          "internalType": "uint64",
          "name": "",
          "type": "uint64"
        }
      ],
      "name": "functionDone",
      "type": "event"
    },
    {
      "inputs": [],
      "name": "setStateAddress",
      "outputs": [],
      "stateMutability": "nonpayable",
      "type": "function"
    },
    {
      "inputs": [
        {
          "internalType": "uint64",
          "name": "_instanceID",
          "type": "uint64"
        },
        {
          "internalType": "bytes32",
          "name": "_hash1",
          "type": "bytes32"
        },
        {
          "internalType": "bytes32",
          "name": "_hash2",
          "type": "bytes32"
        }
      ],
      "name": "setAuthoritiesNames",
      "outputs": [],
      "stateMutability": "nonpayable",
      "type": "function"
    },
    {
      "inputs": [
        {
          "internalType": "address",
          "name": "_address",
          "type": "address"
        },
        {
          "internalType": "uint64",
          "name": "_instanceID",
          "type": "uint64"
        }
      ],
      "name": "getAuthoritiesNames",
      "outputs": [
        {
          "internalType": "bytes",
          "name": "",
          "type": "bytes"
        }
      ],
      "stateMutability": "view",
      "type": "function",
      "constant": true
    },
    {
      "inputs": [
        {
          "internalType": "uint64",
          "name": "_instanceID",
          "type": "uint64"
        },
        {
          "internalType": "bytes32",
          "name": "_hash1",
          "type": "bytes32"
        },
        {
          "internalType": "bytes32",
          "name": "_hash2",
          "type": "bytes32"
        },
        {
          "internalType": "bytes32",
          "name": "_hash3",
          "type": "bytes32"
        },
        {
          "internalType": "bytes32",
          "name": "_hash4",
          "type": "bytes32"
        }
      ],
      "name": "setElementHashed",
      "outputs": [],
      "stateMutability": "nonpayable",
      "type": "function"
    },
    {
      "inputs": [
        {
          "internalType": "address",
          "name": "_address",
          "type": "address"
        },
        {
          "internalType": "uint64",
          "name": "_instanceID",
          "type": "uint64"
        }
      ],
      "name": "getElementHashed",
      "outputs": [
        {
          "internalType": "bytes",
          "name": "",
          "type": "bytes"
        },
        {
          "internalType": "bytes",
          "name": "",
          "type": "bytes"
        }
      ],
      "stateMutability": "view",
      "type": "function",
      "constant": true
    },
    {
      "inputs": [
        {
          "internalType": "uint64",
          "name": "_instanceID",
          "type": "uint64"
        },
        {
          "internalType": "bytes32",
          "name": "_hash1",
          "type": "bytes32"
        },
        {
          "internalType": "bytes32",
          "name": "_hash2",
          "type": "bytes32"
        },
        {
          "internalType": "bytes32",
          "name": "_hash3",
          "type": "bytes32"
        },
        {
          "internalType": "bytes32",
          "name": "_hash4",
          "type": "bytes32"
        },
        {
          "internalType": "bytes32",
          "name": "_hash5",
          "type": "bytes32"
        },
        {
          "internalType": "bytes32",
          "name": "_hash6",
          "type": "bytes32"
        }
      ],
      "name": "setElement",
      "outputs": [],
      "stateMutability": "nonpayable",
      "type": "function"
    },
    {
      "inputs": [
        {
          "internalType": "address",
          "name": "_address",
          "type": "address"
        },
        {
          "internalType": "uint64",
          "name": "_instanceID",
          "type": "uint64"
        }
      ],
      "name": "getElement",
      "outputs": [
        {
          "internalType": "bytes",
          "name": "",
          "type": "bytes"
        },
        {
          "internalType": "bytes32",
          "name": "",
          "type": "bytes32"
        },
        {
          "internalType": "bytes",
          "name": "",
          "type": "bytes"
        },
        {
          "internalType": "bytes32",
          "name": "",
          "type": "bytes32"
        }
      ],
      "stateMutability": "view",
      "type": "function",
      "constant": true
    },
    {
      "inputs": [
        {
          "internalType": "uint64",
          "name": "_instanceID",
          "type": "uint64"
        },
        {
          "internalType": "bytes32",
          "name": "_hash1",
          "type": "bytes32"
        },
        {
          "internalType": "bytes32",
          "name": "_hash2",
          "type": "bytes32"
        }
      ],
      "name": "setPublicParameters",
      "outputs": [],
      "stateMutability": "nonpayable",
      "type": "function"
    },
    {
      "inputs": [
        {
          "internalType": "address",
          "name": "_address",
          "type": "address"
        },
        {
          "internalType": "uint64",
          "name": "_instanceID",
          "type": "uint64"
        }
      ],
      "name": "getPublicParameters",
      "outputs": [
        {
          "internalType": "bytes",
          "name": "",
          "type": "bytes"
        }
      ],
      "stateMutability": "view",
      "type": "function",
      "constant": true
    },
    {
      "inputs": [
        {
          "internalType": "uint64",
          "name": "_instanceID",
          "type": "uint64"
        },
        {
          "internalType": "bytes32",
          "name": "_hash1",
          "type": "bytes32"
        },
        {
          "internalType": "bytes32",
          "name": "_hash2",
          "type": "bytes32"
        }
      ],
      "name": "setPublicKey",
      "outputs": [],
      "stateMutability": "nonpayable",
      "type": "function"
    },
    {
      "inputs": [
        {
          "internalType": "address",
          "name": "_address",
          "type": "address"
        },
        {
          "internalType": "uint64",
          "name": "_instanceID",
          "type": "uint64"
        }
      ],
      "name": "getPublicKey",
      "outputs": [
        {
          "internalType": "bytes",
          "name": "",
          "type": "bytes"
        }
      ],
      "stateMutability": "view",
      "type": "function",
      "constant": true
    },
    {
      "inputs": [
        {
          "internalType": "bytes32",
          "name": "_hash1",
          "type": "bytes32"
        },
        {
          "internalType": "bytes32",
          "name": "_hash2",
          "type": "bytes32"
        }
      ],
      "name": "setPublicKeyReaders",
      "outputs": [],
      "stateMutability": "nonpayable",
      "type": "function"
    },
    {
      "inputs": [
        {
          "internalType": "address",
          "name": "_address",
          "type": "address"
        }
      ],
      "name": "getPublicKeyReaders",
      "outputs": [
        {
          "internalType": "bytes",
          "name": "",
          "type": "bytes"
        }
      ],
      "stateMutability": "view",
      "type": "function",
      "constant": true
    },
    {
      "inputs": [
        {
          "internalType": "uint64",
          "name": "instanceId",
          "type": "uint64"
        },
        {
          "internalType": "uint64",
          "name": "_messageID",
          "type": "uint64"
        },
        {
          "internalType": "bytes32",
          "name": "_hash1",
          "type": "bytes32"
        },
        {
          "internalType": "bytes32",
          "name": "_hash2",
          "type": "bytes32"
        },
        {
          "internalType": "bytes32[]",
          "name": "publicvarNames",
          "type": "bytes32[]"
        },
        {
          "internalType": "bytes32[]",
          "name": "publicVarValues",
          "type": "bytes32[]"
        }
      ],
      "name": "setIPFSLink",
      "outputs": [],
      "stateMutability": "nonpayable",
      "type": "function"
    },
    {
      "inputs": [
        {
          "internalType": "uint64",
          "name": "_messageID",
          "type": "uint64"
        }
      ],
      "name": "getIPFSLink",
      "outputs": [
        {
          "internalType": "address",
          "name": "",
          "type": "address"
        },
        {
          "internalType": "bytes",
          "name": "",
          "type": "bytes"
        }
      ],
      "stateMutability": "view",
      "type": "function",
      "constant": true
    },
    {
      "inputs": [
        {
          "internalType": "uint64",
          "name": "_instanceID",
          "type": "uint64"
        },
        {
          "internalType": "bytes32",
          "name": "_hash1",
          "type": "bytes32"
        },
        {
          "internalType": "bytes32",
          "name": "_hash2",
          "type": "bytes32"
        }
      ],
      "name": "setUserAttributes",
      "outputs": [],
      "stateMutability": "nonpayable",
      "type": "function"
    },
    {
      "inputs": [
        {
          "internalType": "uint64",
          "name": "_instanceID",
          "type": "uint64"
        }
      ],
      "name": "getUserAttributes",
      "outputs": [
        {
          "internalType": "bytes",
          "name": "",
          "type": "bytes"
        }
      ],
      "stateMutability": "view",
      "type": "function",
      "constant": true
    },
    {
      "inputs": [
        {
          "internalType": "uint64",
          "name": "_instanceID",
          "type": "uint64"
        },
        {
          "internalType": "address[]",
          "name": "_authorities",
          "type": "address[]"
        }
      ],
      "name": "notifyAuthorities",
      "outputs": [],
      "stateMutability": "nonpayable",
      "type": "function"
    }
  ],
  "bytecode": "0x608060405234801561001057600080fd5b50612874806100206000396000f3fe608060405234801561001057600080fd5b50600436106101165760003560e01c80635d163535116100a25780638d30055a116100715780638d30055a146102f2578063bbce857014610322578063c40dc8ed1461033e578063cf1fd0d11461035a578063ffff60f91461037657610116565b80635d16353514610242578063621f2e64146102735780636d640b96146102a357806370012d0a146102bf57610116565b80633b8b760c116100e95780633b8b760c146101a05780633f30c4cd146101d0578063475a953814610200578063497dc1e41461020a5780634b6869ed1461022657610116565b806305367d0a1461011b57806305688eba1461014c5780630d18543d1461016857806312c0804214610184575b600080fd5b61013560048036038101906101309190611d68565b6103a6565b604051610143929190611e66565b60405180910390f35b61016660048036038101906101619190611ecc565b6104c4565b005b610182600480360381019061017d9190611f1f565b610527565b005b61019e60048036038101906101999190611ecc565b6105b9565b005b6101ba60048036038101906101b59190611f8b565b610696565b6040516101c79190611fcb565b60405180910390f35b6101ea60048036038101906101e59190611f8b565b6107da565b6040516101f79190611fcb565b60405180910390f35b61020861091e565b005b610224600480360381019061021f9190611fed565b610a1a565b005b610240600480360381019061023b9190611ecc565b610cab565b005b61025c60048036038101906102579190611f8b565b610d88565b60405161026a92919061208f565b60405180910390f35b61028d60048036038101906102889190611f8b565b61100a565b60405161029a9190611fcb565b60405180910390f35b6102bd60048036038101906102b8919061220e565b61114e565b005b6102d960048036038101906102d49190611f8b565b6114f9565b6040516102e994939291906122e2565b60405180910390f35b61030c60048036038101906103079190612335565b611861565b6040516103199190611fcb565b60405180910390f35b61033c60048036038101906103379190612425565b61195a565b005b61035860048036038101906103539190612481565b6119b7565b005b610374600480360381019061036f9190611ecc565b611b6e565b005b610390600480360381019061038b9190611d68565b611c4b565b60405161039d9190611fcb565b60405180910390f35b600060606000600a60008567ffffffffffffffff1667ffffffffffffffff16815260200190815260200160002060000160009054906101000a900473ffffffffffffffffffffffffffffffffffffffff1690506000600a60008667ffffffffffffffff1667ffffffffffffffff1681526020019081526020016000206001015490506000600a60008767ffffffffffffffff1667ffffffffffffffff1681526020019081526020016000206002015490506000604067ffffffffffffffff811115610474576104736120cb565b5b6040519080825280601f01601f1916602001820160405280156104a65781602001600182028036833780820191505090505b50905082602082015281604082015283819550955050505050915091565b81600b60008567ffffffffffffffff1667ffffffffffffffff1681526020019081526020016000206000018190555080600b60008567ffffffffffffffff1667ffffffffffffffff16815260200190815260200160002060010181905550505050565b81600960003373ffffffffffffffffffffffffffffffffffffffff1673ffffffffffffffffffffffffffffffffffffffff1681526020019081526020016000206000018190555080600960003373ffffffffffffffffffffffffffffffffffffffff1673ffffffffffffffffffffffffffffffffffffffff168152602001908152602001600020600101819055505050565b81600260008567ffffffffffffffff1667ffffffffffffffff16815260200190815260200160002060003373ffffffffffffffffffffffffffffffffffffffff1673ffffffffffffffffffffffffffffffffffffffff1681526020019081526020016000206000018190555080600260008567ffffffffffffffff1667ffffffffffffffff16815260200190815260200160002060003373ffffffffffffffffffffffffffffffffffffffff1673ffffffffffffffffffffffffffffffffffffffff16815260200190815260200160002060010181905550505050565b60606000600860008467ffffffffffffffff1667ffffffffffffffff16815260200190815260200160002060008573ffffffffffffffffffffffffffffffffffffffff1673ffffffffffffffffffffffffffffffffffffffff1681526020019081526020016000206000015490506000600860008567ffffffffffffffff1667ffffffffffffffff16815260200190815260200160002060008673ffffffffffffffffffffffffffffffffffffffff1673ffffffffffffffffffffffffffffffffffffffff1681526020019081526020016000206001015490506000604067ffffffffffffffff81111561078d5761078c6120cb565b5b6040519080825280601f01601f1916602001820160405280156107bf5781602001600182028036833780820191505090505b50905082602082015281604082015280935050505092915050565b60606000600760008467ffffffffffffffff1667ffffffffffffffff16815260200190815260200160002060008573ffffffffffffffffffffffffffffffffffffffff1673ffffffffffffffffffffffffffffffffffffffff1681526020019081526020016000206000015490506000600760008567ffffffffffffffff1667ffffffffffffffff16815260200190815260200160002060008673ffffffffffffffffffffffffffffffffffffffff1673ffffffffffffffffffffffffffffffffffffffff1681526020019081526020016000206001015490506000604067ffffffffffffffff8111156108d1576108d06120cb565b5b6040519080825280601f01601f1916602001820160405280156109035781602001600182028036833780820191505090505b50905082602082015281604082015280935050505092915050565b600073ffffffffffffffffffffffffffffffffffffffff1660008054906101000a900473ffffffffffffffffffffffffffffffffffffffff1673ffffffffffffffffffffffffffffffffffffffff161461097757600080fd5b336000806101000a81548173ffffffffffffffffffffffffffffffffffffffff021916908373ffffffffffffffffffffffffffffffffffffffff16021790555060008054906101000a900473ffffffffffffffffffffffffffffffffffffffff16600160006101000a81548173ffffffffffffffffffffffffffffffffffffffff021916908373ffffffffffffffffffffffffffffffffffffffff160217905550565b85600560008967ffffffffffffffff1667ffffffffffffffff16815260200190815260200160002060003373ffffffffffffffffffffffffffffffffffffffff1673ffffffffffffffffffffffffffffffffffffffff1681526020019081526020016000206000018190555084600560008967ffffffffffffffff1667ffffffffffffffff16815260200190815260200160002060003373ffffffffffffffffffffffffffffffffffffffff1673ffffffffffffffffffffffffffffffffffffffff1681526020019081526020016000206001018190555083600560008967ffffffffffffffff1667ffffffffffffffff16815260200190815260200160002060003373ffffffffffffffffffffffffffffffffffffffff1673ffffffffffffffffffffffffffffffffffffffff1681526020019081526020016000206002018190555082600660008967ffffffffffffffff1667ffffffffffffffff16815260200190815260200160002060003373ffffffffffffffffffffffffffffffffffffffff1673ffffffffffffffffffffffffffffffffffffffff1681526020019081526020016000206000018190555081600660008967ffffffffffffffff1667ffffffffffffffff16815260200190815260200160002060003373ffffffffffffffffffffffffffffffffffffffff1673ffffffffffffffffffffffffffffffffffffffff1681526020019081526020016000206001018190555080600660008967ffffffffffffffff1667ffffffffffffffff16815260200190815260200160002060003373ffffffffffffffffffffffffffffffffffffffff1673ffffffffffffffffffffffffffffffffffffffff1681526020019081526020016000206002018190555050505050505050565b81600860008567ffffffffffffffff1667ffffffffffffffff16815260200190815260200160002060003373ffffffffffffffffffffffffffffffffffffffff1673ffffffffffffffffffffffffffffffffffffffff1681526020019081526020016000206000018190555080600860008567ffffffffffffffff1667ffffffffffffffff16815260200190815260200160002060003373ffffffffffffffffffffffffffffffffffffffff1673ffffffffffffffffffffffffffffffffffffffff16815260200190815260200160002060010181905550505050565b6060806000600360008567ffffffffffffffff1667ffffffffffffffff16815260200190815260200160002060008673ffffffffffffffffffffffffffffffffffffffff1673ffffffffffffffffffffffffffffffffffffffff1681526020019081526020016000206000015490506000600360008667ffffffffffffffff1667ffffffffffffffff16815260200190815260200160002060008773ffffffffffffffffffffffffffffffffffffffff1673ffffffffffffffffffffffffffffffffffffffff1681526020019081526020016000206001015490506000600460008767ffffffffffffffff1667ffffffffffffffff16815260200190815260200160002060008873ffffffffffffffffffffffffffffffffffffffff1673ffffffffffffffffffffffffffffffffffffffff1681526020019081526020016000206000015490506000600460008867ffffffffffffffff1667ffffffffffffffff16815260200190815260200160002060008973ffffffffffffffffffffffffffffffffffffffff1673ffffffffffffffffffffffffffffffffffffffff1681526020019081526020016000206001015490506000604067ffffffffffffffff811115610f5857610f576120cb565b5b6040519080825280601f01601f191660200182016040528015610f8a5781602001600182028036833780820191505090505b5090508460208201528360408201526000604067ffffffffffffffff811115610fb657610fb56120cb565b5b6040519080825280601f01601f191660200182016040528015610fe85781602001600182028036833780820191505090505b5090508360208201528260408201528181975097505050505050509250929050565b60606000600260008467ffffffffffffffff1667ffffffffffffffff16815260200190815260200160002060008573ffffffffffffffffffffffffffffffffffffffff1673ffffffffffffffffffffffffffffffffffffffff1681526020019081526020016000206000015490506000600260008567ffffffffffffffff1667ffffffffffffffff16815260200190815260200160002060008673ffffffffffffffffffffffffffffffffffffffff1673ffffffffffffffffffffffffffffffffffffffff1681526020019081526020016000206001015490506000604067ffffffffffffffff811115611101576111006120cb565b5b6040519080825280601f01601f1916602001820160405280156111335781602001600182028036833780820191505090505b50905082602082015281604082015280935050505092915050565b8585336000600160009054906101000a900473ffffffffffffffffffffffffffffffffffffffff1673ffffffffffffffffffffffffffffffffffffffff1663e075167c8585856040518463ffffffff1660e01b81526004016111b29392919061250b565b602060405180830381865afa1580156111cf573d6000803e3d6000fd5b505050506040513d601f19601f820116820180604052508101906111f3919061257a565b9050600115158115151461123c576040517f08c379a000000000000000000000000000000000000000000000000000000000815260040161123390612604565b60405180910390fd5b600160009054906101000a900473ffffffffffffffffffffffffffffffffffffffff1673ffffffffffffffffffffffffffffffffffffffff1663d9ecd0068b8b6040518363ffffffff1660e01b8152600401611299929190612624565b600060405180830381600087803b1580156112b357600080fd5b505af11580156112c7573d6000803e3d6000fd5b5050505033600a60008b67ffffffffffffffff1667ffffffffffffffff16815260200190815260200160002060000160006101000a81548173ffffffffffffffffffffffffffffffffffffffff021916908373ffffffffffffffffffffffffffffffffffffffff16021790555087600a60008b67ffffffffffffffff1667ffffffffffffffff1681526020019081526020016000206001018190555086600a60008b67ffffffffffffffff1667ffffffffffffffff16815260200190815260200160002060020181905550600160009054906101000a900473ffffffffffffffffffffffffffffffffffffffff1673ffffffffffffffffffffffffffffffffffffffff1663a661bede8b8b89896040518563ffffffff1660e01b81526004016113f3949392919061270b565b600060405180830381600087803b15801561140d57600080fd5b505af1158015611421573d6000803e3d6000fd5b50505050600160009054906101000a900473ffffffffffffffffffffffffffffffffffffffff1673ffffffffffffffffffffffffffffffffffffffff1663503528028b8b6040518363ffffffff1660e01b8152600401611482929190612624565b600060405180830381600087803b15801561149c57600080fd5b505af11580156114b0573d6000803e3d6000fd5b505050507fa09a3100a40a1aaef364ab44513d7fb46dda1a306b5615910007fc3faa4a61a78a8a6040516114e5929190612624565b60405180910390a150505050505050505050565b606060006060600080600560008767ffffffffffffffff1667ffffffffffffffff16815260200190815260200160002060008873ffffffffffffffffffffffffffffffffffffffff1673ffffffffffffffffffffffffffffffffffffffff1681526020019081526020016000206000015490506000600560008867ffffffffffffffff1667ffffffffffffffff16815260200190815260200160002060008973ffffffffffffffffffffffffffffffffffffffff1673ffffffffffffffffffffffffffffffffffffffff1681526020019081526020016000206001015490506000600560008967ffffffffffffffff1667ffffffffffffffff16815260200190815260200160002060008a73ffffffffffffffffffffffffffffffffffffffff1673ffffffffffffffffffffffffffffffffffffffff1681526020019081526020016000206002015490506000600660008a67ffffffffffffffff1667ffffffffffffffff16815260200190815260200160002060008b73ffffffffffffffffffffffffffffffffffffffff1673ffffffffffffffffffffffffffffffffffffffff1681526020019081526020016000206000015490506000600660008b67ffffffffffffffff1667ffffffffffffffff16815260200190815260200160002060008c73ffffffffffffffffffffffffffffffffffffffff1673ffffffffffffffffffffffffffffffffffffffff1681526020019081526020016000206001015490506000600660008c67ffffffffffffffff1667ffffffffffffffff16815260200190815260200160002060008d73ffffffffffffffffffffffffffffffffffffffff1673ffffffffffffffffffffffffffffffffffffffff1681526020019081526020016000206002015490506000604067ffffffffffffffff8111156117a5576117a46120cb565b5b6040519080825280601f01601f1916602001820160405280156117d75781602001600182028036833780820191505090505b5090508660208201528560408201526000604067ffffffffffffffff811115611803576118026120cb565b5b6040519080825280601f01601f1916602001820160405280156118355781602001600182028036833780820191505090505b509050846020820152836040820152818682859b509b509b509b50505050505050505092959194509250565b60606000600960008473ffffffffffffffffffffffffffffffffffffffff1673ffffffffffffffffffffffffffffffffffffffff1681526020019081526020016000206000015490506000600960008573ffffffffffffffffffffffffffffffffffffffff1673ffffffffffffffffffffffffffffffffffffffff1681526020019081526020016000206001015490506000604067ffffffffffffffff81111561190e5761190d6120cb565b5b6040519080825280601f01601f1916602001820160405280156119405781602001600182028036833780820191505090505b509050826020820152816040820152809350505050919050565b3373ffffffffffffffffffffffffffffffffffffffff168267ffffffffffffffff167f4d9527006ca0ecc612473ce90849374078a8bf5532411fd80cec19496f27e93b836040516119ab919061281c565b60405180910390a35050565b83600360008767ffffffffffffffff1667ffffffffffffffff16815260200190815260200160002060003373ffffffffffffffffffffffffffffffffffffffff1673ffffffffffffffffffffffffffffffffffffffff1681526020019081526020016000206000018190555082600360008767ffffffffffffffff1667ffffffffffffffff16815260200190815260200160002060003373ffffffffffffffffffffffffffffffffffffffff1673ffffffffffffffffffffffffffffffffffffffff1681526020019081526020016000206001018190555081600460008767ffffffffffffffff1667ffffffffffffffff16815260200190815260200160002060003373ffffffffffffffffffffffffffffffffffffffff1673ffffffffffffffffffffffffffffffffffffffff1681526020019081526020016000206000018190555080600460008767ffffffffffffffff1667ffffffffffffffff16815260200190815260200160002060003373ffffffffffffffffffffffffffffffffffffffff1673ffffffffffffffffffffffffffffffffffffffff168152602001908152602001600020600101819055505050505050565b81600760008567ffffffffffffffff1667ffffffffffffffff16815260200190815260200160002060003373ffffffffffffffffffffffffffffffffffffffff1673ffffffffffffffffffffffffffffffffffffffff1681526020019081526020016000206000018190555080600760008567ffffffffffffffff1667ffffffffffffffff16815260200190815260200160002060003373ffffffffffffffffffffffffffffffffffffffff1673ffffffffffffffffffffffffffffffffffffffff16815260200190815260200160002060010181905550505050565b60606000600b60008467ffffffffffffffff1667ffffffffffffffff1681526020019081526020016000206000015490506000600b60008567ffffffffffffffff1667ffffffffffffffff1681526020019081526020016000206001015490506000604067ffffffffffffffff811115611cc857611cc76120cb565b5b6040519080825280601f01601f191660200182016040528015611cfa5781602001600182028036833780820191505090505b509050826020820152816040820152809350505050919050565b6000604051905090565b600080fd5b600080fd5b600067ffffffffffffffff82169050919050565b611d4581611d28565b8114611d5057600080fd5b50565b600081359050611d6281611d3c565b92915050565b600060208284031215611d7e57611d7d611d1e565b5b6000611d8c84828501611d53565b91505092915050565b600073ffffffffffffffffffffffffffffffffffffffff82169050919050565b6000611dc082611d95565b9050919050565b611dd081611db5565b82525050565b600081519050919050565b600082825260208201905092915050565b60005b83811015611e10578082015181840152602081019050611df5565b60008484015250505050565b6000601f19601f8301169050919050565b6000611e3882611dd6565b611e428185611de1565b9350611e52818560208601611df2565b611e5b81611e1c565b840191505092915050565b6000604082019050611e7b6000830185611dc7565b8181036020830152611e8d8184611e2d565b90509392505050565b6000819050919050565b611ea981611e96565b8114611eb457600080fd5b50565b600081359050611ec681611ea0565b92915050565b600080600060608486031215611ee557611ee4611d1e565b5b6000611ef386828701611d53565b9350506020611f0486828701611eb7565b9250506040611f1586828701611eb7565b9150509250925092565b60008060408385031215611f3657611f35611d1e565b5b6000611f4485828601611eb7565b9250506020611f5585828601611eb7565b9150509250929050565b611f6881611db5565b8114611f7357600080fd5b50565b600081359050611f8581611f5f565b92915050565b60008060408385031215611fa257611fa1611d1e565b5b6000611fb085828601611f76565b9250506020611fc185828601611d53565b9150509250929050565b60006020820190508181036000830152611fe58184611e2d565b905092915050565b600080600080600080600060e0888a03121561200c5761200b611d1e565b5b600061201a8a828b01611d53565b975050602061202b8a828b01611eb7565b965050604061203c8a828b01611eb7565b955050606061204d8a828b01611eb7565b945050608061205e8a828b01611eb7565b93505060a061206f8a828b01611eb7565b92505060c06120808a828b01611eb7565b91505092959891949750929550565b600060408201905081810360008301526120a98185611e2d565b905081810360208301526120bd8184611e2d565b90509392505050565b600080fd5b7f4e487b7100000000000000000000000000000000000000000000000000000000600052604160045260246000fd5b61210382611e1c565b810181811067ffffffffffffffff82111715612122576121216120cb565b5b80604052505050565b6000612135611d14565b905061214182826120fa565b919050565b600067ffffffffffffffff821115612161576121606120cb565b5b602082029050602081019050919050565b600080fd5b600061218a61218584612146565b61212b565b905080838252602082019050602084028301858111156121ad576121ac612172565b5b835b818110156121d657806121c28882611eb7565b8452602084019350506020810190506121af565b5050509392505050565b600082601f8301126121f5576121f46120c6565b5b8135612205848260208601612177565b91505092915050565b60008060008060008060c0878903121561222b5761222a611d1e565b5b600061223989828a01611d53565b965050602061224a89828a01611d53565b955050604061225b89828a01611eb7565b945050606061226c89828a01611eb7565b935050608087013567ffffffffffffffff81111561228d5761228c611d23565b5b61229989828a016121e0565b92505060a087013567ffffffffffffffff8111156122ba576122b9611d23565b5b6122c689828a016121e0565b9150509295509295509295565b6122dc81611e96565b82525050565b600060808201905081810360008301526122fc8187611e2d565b905061230b60208301866122d3565b818103604083015261231d8185611e2d565b905061232c60608301846122d3565b95945050505050565b60006020828403121561234b5761234a611d1e565b5b600061235984828501611f76565b91505092915050565b600067ffffffffffffffff82111561237d5761237c6120cb565b5b602082029050602081019050919050565b60006123a161239c84612362565b61212b565b905080838252602082019050602084028301858111156123c4576123c3612172565b5b835b818110156123ed57806123d98882611f76565b8452602084019350506020810190506123c6565b5050509392505050565b600082601f83011261240c5761240b6120c6565b5b813561241c84826020860161238e565b91505092915050565b6000806040838503121561243c5761243b611d1e565b5b600061244a85828601611d53565b925050602083013567ffffffffffffffff81111561246b5761246a611d23565b5b612477858286016123f7565b9150509250929050565b600080600080600060a0868803121561249d5761249c611d1e565b5b60006124ab88828901611d53565b95505060206124bc88828901611eb7565b94505060406124cd88828901611eb7565b93505060606124de88828901611eb7565b92505060806124ef88828901611eb7565b9150509295509295909350565b61250581611d28565b82525050565b600060608201905061252060008301866124fc565b61252d60208301856124fc565b61253a6040830184611dc7565b949350505050565b60008115159050919050565b61255781612542565b811461256257600080fd5b50565b6000815190506125748161254e565b92915050565b6000602082840312156125905761258f611d1e565b5b600061259e84828501612565565b91505092915050565b600082825260208201905092915050565b7f6d657373616765206e6f7420656e61626c656400000000000000000000000000600082015250565b60006125ee6013836125a7565b91506125f9826125b8565b602082019050919050565b6000602082019050818103600083015261261d816125e1565b9050919050565b600060408201905061263960008301856124fc565b61264660208301846124fc565b9392505050565b600081519050919050565b600082825260208201905092915050565b6000819050602082019050919050565b61268281611e96565b82525050565b60006126948383612679565b60208301905092915050565b6000602082019050919050565b60006126b88261264d565b6126c28185612658565b93506126cd83612669565b8060005b838110156126fe5781516126e58882612688565b97506126f0836126a0565b9250506001810190506126d1565b5085935050505092915050565b600060808201905061272060008301876124fc565b61272d60208301866124fc565b818103604083015261273f81856126ad565b9050818103606083015261275381846126ad565b905095945050505050565b600081519050919050565b600082825260208201905092915050565b6000819050602082019050919050565b61279381611db5565b82525050565b60006127a5838361278a565b60208301905092915050565b6000602082019050919050565b60006127c98261275e565b6127d38185612769565b93506127de8361277a565b8060005b8381101561280f5781516127f68882612799565b9750612801836127b1565b9250506001810190506127e2565b5085935050505092915050565b6000602082019050818103600083015261283681846127be565b90509291505056fea2646970667358221220143a7a6ecf42eb01385499882a7ce7a79246d5cef071d74cfffdec2eb503706d64736f6c63430008110033",
  "immutableReferences": {},
  "source": "// SPDX-License-Identifier: CC-BY-SA-4.0\r\n\r\npragma solidity >= 0.5.0 < 0.9.0;\r\nimport \"./StateContract.sol\";\r\n\r\ncontract ConfidentialContract {\r\n\r\n  event functionDone(uint64, uint64);\r\n  // Event to notify authorities to send their portion of the decryption key\r\n  event AuthoritiesNotified(uint64 indexed process_id, address indexed user, address[] authorities);\r\n  address stateAddress;\r\n  StateContract stateContract;\r\n  struct authoritiesNames {\r\n    bytes32 hashPart1;\r\n    bytes32 hashPart2;\r\n  }\r\n  mapping (uint64 => mapping (address => authoritiesNames)) authoritiesName;\r\n\r\n  struct firstElementHashed {\r\n    bytes32 hashPart1;\r\n    bytes32 hashPart2;\r\n  }\r\n  mapping (uint64 => mapping (address => firstElementHashed)) firstGHashed;\r\n\r\n  struct secondElementHashed {\r\n    bytes32 hashPart1;\r\n    bytes32 hashPart2;\r\n  }\r\n  mapping (uint64 => mapping (address => secondElementHashed)) secondGHashed;\r\n\r\n  struct firstElement {\r\n    bytes32 hashPart1;\r\n    bytes32 hashPart2;\r\n    bytes32 hashPart3;\r\n  }\r\n  mapping (uint64 => mapping (address => firstElement)) firstG;\r\n\r\n  struct secondElement {\r\n    bytes32 hashPart1;\r\n    bytes32 hashPart2;\r\n    bytes32 hashPart3;\r\n  }\r\n  mapping (uint64 => mapping (address => secondElement)) secondG;\r\n\r\n  struct publicParameters {\r\n    bytes32 hashPart1;\r\n    bytes32 hashPart2;\r\n  }\r\n  mapping (uint64 => mapping (address => publicParameters)) parameters;\r\n\r\n  struct publicKey {\r\n    bytes32 hashPart1;\r\n    bytes32 hashPart2;\r\n  }\r\n  mapping (uint64 => mapping (address =>  publicKey)) publicKeys;\r\n\r\n  struct publicKeyReaders {\r\n    bytes32 hashPart1;\r\n    bytes32 hashPart2;\r\n  }\r\n  mapping (address =>  publicKeyReaders) publicKeysReaders;\r\n\r\n  struct IPFSCiphertext {\r\n    address sender;\r\n    bytes32 hashPart1;\r\n    bytes32 hashPart2;\r\n  }\r\n  mapping (uint64 => IPFSCiphertext) allLinks;\r\n\r\n  struct userAttributes {\r\n    bytes32 hashPart1;\r\n    bytes32 hashPart2;\r\n  }\r\n  mapping (uint64 => userAttributes) allUsers;\r\n\r\n   function setStateAddress() public{\r\n        require(stateAddress == address(0));\r\n        stateAddress = msg.sender;\r\n        stateContract = StateContract(stateAddress);\r\n    } \r\n\r\n  function setAuthoritiesNames(uint64 _instanceID, bytes32 _hash1, bytes32 _hash2) public {\r\n    authoritiesName[_instanceID][msg.sender].hashPart1 = _hash1;\r\n    authoritiesName[_instanceID][msg.sender].hashPart2 = _hash2;\r\n  }\r\n\r\n  function getAuthoritiesNames(address _address, uint64 _instanceID) public view returns (bytes memory) {\r\n    bytes32 p1 = authoritiesName[_instanceID][_address].hashPart1;\r\n    bytes32 p2 = authoritiesName[_instanceID][_address].hashPart2;\r\n    bytes memory joined = new bytes(64);\r\n    assembly {\r\n      mstore(add(joined, 32), p1)\r\n      mstore(add(joined, 64), p2)\r\n    }\r\n    return joined;\r\n  }\r\n\r\n  function setElementHashed(uint64 _instanceID, bytes32 _hash1, bytes32 _hash2, bytes32 _hash3, bytes32 _hash4) public {\r\n    firstGHashed[_instanceID][msg.sender].hashPart1 = _hash1;\r\n    firstGHashed[_instanceID][msg.sender].hashPart2 = _hash2;\r\n    secondGHashed[_instanceID][msg.sender].hashPart1 = _hash3;\r\n    secondGHashed[_instanceID][msg.sender].hashPart2 = _hash4;\r\n  }\r\n\r\n  function getElementHashed(address _address, uint64 _instanceID) public view returns (bytes memory, bytes memory) {\r\n    bytes32 p1 = firstGHashed[_instanceID][_address].hashPart1;\r\n    bytes32 p2 = firstGHashed[_instanceID][_address].hashPart2;\r\n    bytes32 p3 = secondGHashed[_instanceID][_address].hashPart1;\r\n    bytes32 p4 = secondGHashed[_instanceID][_address].hashPart2;\r\n    bytes memory joined = new bytes(64);\r\n    assembly {\r\n      mstore(add(joined, 32), p1)\r\n      mstore(add(joined, 64), p2)\r\n    }\r\n    bytes memory joinedsec = new bytes(64);\r\n    assembly {\r\n      mstore(add(joinedsec, 32), p3)\r\n      mstore(add(joinedsec, 64), p4)\r\n    }\r\n    return (joined, joinedsec);\r\n  }\r\n\r\n  function setElement(uint64 _instanceID, bytes32 _hash1, bytes32 _hash2, bytes32 _hash3, bytes32 _hash4, bytes32 _hash5, bytes32 _hash6) public {\r\n    firstG[_instanceID][msg.sender].hashPart1 = _hash1;\r\n    firstG[_instanceID][msg.sender].hashPart2 = _hash2;\r\n    firstG[_instanceID][msg.sender].hashPart3 = _hash3;\r\n    secondG[_instanceID][msg.sender].hashPart1 = _hash4;\r\n    secondG[_instanceID][msg.sender].hashPart2 = _hash5;\r\n    secondG[_instanceID][msg.sender].hashPart3 = _hash6;\r\n  }\r\n\r\n  function getElement(address _address, uint64 _instanceID) public view returns (bytes memory, bytes32, bytes memory, bytes32) {\r\n    bytes32 p1 = firstG[_instanceID][_address].hashPart1;\r\n    bytes32 p2 = firstG[_instanceID][_address].hashPart2;\r\n    bytes32 p3 = firstG[_instanceID][_address].hashPart3;\r\n    bytes32 p4 = secondG[_instanceID][_address].hashPart1;\r\n    bytes32 p5 = secondG[_instanceID][_address].hashPart2;\r\n    bytes32 p6 = secondG[_instanceID][_address].hashPart3;\r\n    bytes memory joined = new bytes(64);\r\n    assembly {\r\n      mstore(add(joined, 32), p1)\r\n      mstore(add(joined, 64), p2)\r\n    }\r\n    bytes memory joinedsec = new bytes(64);\r\n    assembly {\r\n      mstore(add(joinedsec, 32), p4)\r\n      mstore(add(joinedsec, 64), p5)\r\n    }\r\n\r\n    return (joined, p3, joinedsec, p6);\r\n  }\r\n\r\n  function setPublicParameters(uint64 _instanceID, bytes32 _hash1, bytes32 _hash2) public {\r\n    parameters[_instanceID][msg.sender].hashPart1 = _hash1;\r\n    parameters[_instanceID][msg.sender].hashPart2 = _hash2;\r\n  }\r\n\r\n  function getPublicParameters(address _address, uint64 _instanceID) public view returns (bytes memory) {\r\n    bytes32 p1 = parameters[_instanceID][_address].hashPart1;\r\n    bytes32 p2 = parameters[_instanceID][_address].hashPart2;\r\n    bytes memory joined = new bytes(64);\r\n    assembly {\r\n      mstore(add(joined, 32), p1)\r\n      mstore(add(joined, 64), p2)\r\n    }\r\n    return joined;\r\n  }\r\n\r\n  function setPublicKey(uint64 _instanceID, bytes32 _hash1, bytes32 _hash2) public {\r\n    publicKeys[_instanceID][msg.sender].hashPart1 = _hash1;\r\n    publicKeys[_instanceID][msg.sender].hashPart2 = _hash2;\r\n  }\r\n\r\n  function getPublicKey(address _address, uint64 _instanceID) public view returns (bytes memory) {\r\n    bytes32 p2 = publicKeys[_instanceID][_address].hashPart1;\r\n    bytes32 p3 = publicKeys[_instanceID][_address].hashPart2;\r\n    bytes memory joined = new bytes(64);\r\n    assembly {\r\n      mstore(add(joined, 32), p2)\r\n      mstore(add(joined, 64), p3)\r\n    }\r\n      return (joined);\r\n  }\r\n\r\n  function setPublicKeyReaders(bytes32 _hash1, bytes32 _hash2) public {\r\n    publicKeysReaders[msg.sender].hashPart1 = _hash1;\r\n    publicKeysReaders[msg.sender].hashPart2 = _hash2;\r\n  }\r\n\r\n  function getPublicKeyReaders(address _address) public view returns (bytes memory) {\r\n    bytes32 p2 = publicKeysReaders[_address].hashPart1;\r\n    bytes32 p3 = publicKeysReaders[_address].hashPart2;\r\n    bytes memory joined = new bytes(64);\r\n    assembly {\r\n      mstore(add(joined, 32), p2)\r\n      mstore(add(joined, 64), p3)\r\n    }\r\n      return (joined);\r\n  }\r\n\r\n   modifier StateCheck(uint64 instanceId, uint64 msgToExecute, address user){\r\n        bool condition = stateContract.getConfidentialChecks(instanceId, msgToExecute, user);\r\n        require(condition == true, \"message not enabled\");\r\n        _;\r\n    }\r\n\r\n\r\n  function setIPFSLink(uint64 instanceId, uint64 _messageID, bytes32 _hash1, bytes32 _hash2, \r\n  bytes32[] memory publicvarNames, bytes32[] memory publicVarValues) public StateCheck(instanceId, _messageID, msg.sender){\r\n    stateContract.checkEventBased(instanceId, _messageID);        \r\n    allLinks[_messageID].sender = msg.sender;\r\n    allLinks[_messageID].hashPart1 = _hash1;\r\n    allLinks[_messageID].hashPart2 = _hash2;\r\n    //it manages the eventual update of public variables used later for the conditions in exclusive gateways\r\n    stateContract.setPublicvariables(instanceId,  _messageID, publicvarNames, publicVarValues);\r\n    //it sets to COMPLETED the current message and enables the next ones\r\n    stateContract.changeStatus(instanceId,  _messageID);\r\n    emit functionDone(instanceId, _messageID);\r\n  }\r\n\r\n  function getIPFSLink(uint64 _messageID) public view returns (address, bytes memory) {\r\n    address sender = allLinks[_messageID].sender;\r\n    bytes32 p1 = allLinks[_messageID].hashPart1;\r\n    bytes32 p2 = allLinks[_messageID].hashPart2;\r\n    bytes memory joined = new bytes(64);\r\n    assembly {\r\n      mstore(add(joined, 32), p1)\r\n      mstore(add(joined, 64), p2)\r\n    }\r\n    return (sender, joined);\r\n  }\r\n\r\n  function setUserAttributes(uint64 _instanceID, bytes32 _hash1, bytes32 _hash2) public {\r\n    allUsers[_instanceID].hashPart1 = _hash1;\r\n    allUsers[_instanceID].hashPart2 = _hash2;\r\n  }\r\n\r\n  function getUserAttributes(uint64 _instanceID) public view returns (bytes memory) {\r\n    bytes32 p1 = allUsers[_instanceID].hashPart1;\r\n    bytes32 p2 = allUsers[_instanceID].hashPart2;\r\n    bytes memory joined = new bytes(64);\r\n    assembly {\r\n      mstore(add(joined, 32), p1)\r\n      mstore(add(joined, 64), p2)\r\n    }\r\n    return joined;\r\n  }\r\n  \r\n  // Function called by an actor to notify the authorities to send their decryption key\r\n  function notifyAuthorities(uint64 _instanceID, address[] memory _authorities) public {\r\n      // Emit the event with the process_id, sender's address, and the list of authorities\r\n      emit AuthoritiesNotified(_instanceID, msg.sender, _authorities);\r\n  }\r\n}\r\n",
  "sourcePath": "/MARTSIA-KoB-API/blockchain/contracts/ConfidentialContract.sol",
  "compiler": {
    "name": "solc",
    "version": "0.8.17+commit.8df45f5f.Emscripten.clang"
  },
  "schemaVersion": "3.4.11",
  "updatedAt": "2025-03-17T17:12:07.317Z",
  "networkType": "ethereum",
  "devdoc": {
    "kind": "dev",
    "methods": {},
    "version": 1
  },
  "userdoc": {
    "kind": "user",
    "methods": {},
    "version": 1
  }
}