{
  "contractName": "StateContract",
  "abi": [
    {
      "inputs": [
        {
          "internalType": "address",
          "name": "confidentialContract",
          "type": "address"
        }
      ],
      "stateMutability": "nonpayable",
      "type": "constructor"
    },
    {
      "anonymous": false,
      "inputs": [
        {
          "indexed": false,
          "internalType": "uint64",
          "name": "",
          "type": "uint64"
        },
        {
          "indexed": false,
          "internalType": "uint64",
          "name": "",
          "type": "uint64"
        }
      ],
      "name": "functionDone",
      "type": "event"
    },
    {
      "inputs": [
        {
          "internalType": "uint64",
          "name": "instanceId",
          "type": "uint64"
        },
        {
          "internalType": "uint64",
          "name": "elementToExecute",
          "type": "uint64"
        }
      ],
      "name": "changeStatus",
      "outputs": [],
      "stateMutability": "nonpayable",
      "type": "function"
    },
    {
      "inputs": [
        {
          "internalType": "uint64",
          "name": "instanceId",
          "type": "uint64"
        },
        {
          "internalType": "uint64",
          "name": "msgToExecute",
          "type": "uint64"
        }
      ],
      "name": "checkEventBased",
      "outputs": [],
      "stateMutability": "nonpayable",
      "type": "function"
    },
    {
      "inputs": [
        {
          "internalType": "uint64",
          "name": "instanceId",
          "type": "uint64"
        },
        {
          "internalType": "uint64[]",
          "name": "elementWithConditions",
          "type": "uint64[]"
        },
        {
          "internalType": "uint64[]",
          "name": "elementWithPublicVar",
          "type": "uint64[]"
        },
        {
          "internalType": "bytes32[]",
          "name": "publicVars",
          "type": "bytes32[]"
        },
        {
          "internalType": "enum StateContract.Operator[]",
          "name": "operators",
          "type": "uint8[]"
        },
        {
          "internalType": "bytes32[]",
          "name": "values",
          "type": "bytes32[]"
        }
      ],
      "name": "createConditions",
      "outputs": [],
      "stateMutability": "nonpayable",
      "type": "function"
    },
    {
      "inputs": [
        {
          "internalType": "uint64",
          "name": "instanceId",
          "type": "uint64"
        },
        {
          "internalType": "uint64",
          "name": "element",
          "type": "uint64"
        }
      ],
      "name": "ex_split",
      "outputs": [],
      "stateMutability": "nonpayable",
      "type": "function"
    },
    {
      "inputs": [
        {
          "internalType": "uint64",
          "name": "instanceId",
          "type": "uint64"
        },
        {
          "internalType": "uint64",
          "name": "element",
          "type": "uint64"
        },
        {
          "internalType": "bytes32",
          "name": "varName",
          "type": "bytes32"
        }
      ],
      "name": "getAllowedVar",
      "outputs": [
        {
          "internalType": "bool",
          "name": "",
          "type": "bool"
        }
      ],
      "stateMutability": "view",
      "type": "function"
    },
    {
      "inputs": [
        {
          "internalType": "uint64",
          "name": "instanceId",
          "type": "uint64"
        },
        {
          "internalType": "uint64",
          "name": "element",
          "type": "uint64"
        }
      ],
      "name": "getCondition",
      "outputs": [
        {
          "components": [
            {
              "internalType": "bytes32",
              "name": "publicVar",
              "type": "bytes32"
            },
            {
              "internalType": "enum StateContract.Operator",
              "name": "op",
              "type": "uint8"
            },
            {
              "internalType": "bytes32",
              "name": "value",
              "type": "bytes32"
            }
          ],
          "internalType": "struct StateContract.Condition",
          "name": "",
          "type": "tuple"
        }
      ],
      "stateMutability": "view",
      "type": "function"
    },
    {
      "inputs": [
        {
          "internalType": "uint64",
          "name": "instanceId",
          "type": "uint64"
        },
        {
          "internalType": "uint64",
          "name": "msgToExecute",
          "type": "uint64"
        },
        {
          "internalType": "address",
          "name": "user",
          "type": "address"
        }
      ],
      "name": "getConfidentialChecks",
      "outputs": [
        {
          "internalType": "bool",
          "name": "",
          "type": "bool"
        }
      ],
      "stateMutability": "view",
      "type": "function"
    },
    {
      "inputs": [
        {
          "internalType": "uint64",
          "name": "instanceId",
          "type": "uint64"
        },
        {
          "internalType": "uint64",
          "name": "_element",
          "type": "uint64"
        }
      ],
      "name": "getInstanceElement",
      "outputs": [
        {
          "components": [
            {
              "internalType": "enum StateContract.ElementState",
              "name": "state",
              "type": "uint8"
            },
            {
              "internalType": "enum StateContract.ElementType",
              "name": "elementType",
              "type": "uint8"
            },
            {
              "internalType": "bytes32",
              "name": "role",
              "type": "bytes32"
            },
            {
              "internalType": "uint64[]",
              "name": "next",
              "type": "uint64[]"
            },
            {
              "internalType": "uint64[]",
              "name": "previous",
              "type": "uint64[]"
            }
          ],
          "internalType": "struct StateContract.Element",
          "name": "",
          "type": "tuple"
        }
      ],
      "stateMutability": "view",
      "type": "function"
    },
    {
      "inputs": [
        {
          "internalType": "uint64",
          "name": "instanceId",
          "type": "uint64"
        }
      ],
      "name": "getInstancePolicy",
      "outputs": [
        {
          "internalType": "bytes",
          "name": "",
          "type": "bytes"
        }
      ],
      "stateMutability": "view",
      "type": "function"
    },
    {
      "inputs": [
        {
          "internalType": "uint64",
          "name": "instanceId",
          "type": "uint64"
        },
        {
          "internalType": "bytes32",
          "name": "_var",
          "type": "bytes32"
        }
      ],
      "name": "getPublicVaraible",
      "outputs": [
        {
          "internalType": "bytes32",
          "name": "",
          "type": "bytes32"
        }
      ],
      "stateMutability": "view",
      "type": "function"
    },
    {
      "inputs": [
        {
          "internalType": "uint64",
          "name": "instanceId",
          "type": "uint64"
        },
        {
          "internalType": "bytes32[]",
          "name": "_roles",
          "type": "bytes32[]"
        },
        {
          "internalType": "address[]",
          "name": "users",
          "type": "address[]"
        },
        {
          "internalType": "uint64[]",
          "name": "elements",
          "type": "uint64[]"
        },
        {
          "internalType": "uint64[][]",
          "name": "nextElements",
          "type": "uint64[][]"
        },
        {
          "internalType": "uint64[][]",
          "name": "previousElements",
          "type": "uint64[][]"
        },
        {
          "internalType": "enum StateContract.ElementType[]",
          "name": "types",
          "type": "uint8[]"
        },
        {
          "internalType": "bytes32",
          "name": "policy1",
          "type": "bytes32"
        },
        {
          "internalType": "bytes32",
          "name": "policy2",
          "type": "bytes32"
        }
      ],
      "name": "instantiateProcess",
      "outputs": [],
      "stateMutability": "nonpayable",
      "type": "function"
    },
    {
      "inputs": [
        {
          "internalType": "uint64",
          "name": "instanceId",
          "type": "uint64"
        },
        {
          "internalType": "uint64",
          "name": "msgToExecute",
          "type": "uint64"
        },
        {
          "internalType": "bytes32[]",
          "name": "publicVarNames",
          "type": "bytes32[]"
        },
        {
          "internalType": "bytes32[]",
          "name": "publicVarValues",
          "type": "bytes32[]"
        }
      ],
      "name": "setPublicvariables",
      "outputs": [],
      "stateMutability": "nonpayable",
      "type": "function"
    }
  ],
  "bytecode": "0x60806040527362aba4475128080dd4b59fa5d7e2faeb2b720a216000806101000a81548173ffffffffffffffffffffffffffffffffffffffff021916908373ffffffffffffffffffffffffffffffffffffffff1602179055503480156200006557600080fd5b5060405162003ac938038062003ac983398181016040528101906200008b919062000164565b60008190508073ffffffffffffffffffffffffffffffffffffffff1663475a95386040518163ffffffff1660e01b8152600401600060405180830381600087803b158015620000d957600080fd5b505af1158015620000ee573d6000803e3d6000fd5b50505050505062000196565b600080fd5b600073ffffffffffffffffffffffffffffffffffffffff82169050919050565b60006200012c82620000ff565b9050919050565b6200013e816200011f565b81146200014a57600080fd5b50565b6000815190506200015e8162000133565b92915050565b6000602082840312156200017d576200017c620000fa565b5b60006200018d848285016200014d565b91505092915050565b61392380620001a66000396000f3fe608060405234801561001057600080fd5b50600436106100a95760003560e01c80638617bb4b116100715780638617bb4b14610162578063a661bede1461017e578063badb7aae1461019a578063d9ecd006146101ca578063f181624c146101e6578063fd2a6ead14610216576100a9565b806324884957146100ae578063441a4d7d146100ca57806350352802146100e65780635a397884146101025780637e693e4914610132575b600080fd5b6100c860048036038101906100c39190612f55565b610246565b005b6100e460048036038101906100df91906130c7565b61074d565b005b61010060048036038101906100fb9190613166565b610753565b005b61011c600480360381019061011791906131a6565b610926565b6040516101299190613214565b60405180910390f35b61014c60048036038101906101479190613166565b61099f565b60405161015991906132f7565b60405180910390f35b61017c600480360381019061017791906133fa565b610a58565b005b610198600480360381019061019391906130c7565b610ce7565b005b6101b460048036038101906101af9190613513565b610e01565b6040516101c19190613214565b60405180910390f35b6101e460048036038101906101df9190613166565b611023565b005b61020060048036038101906101fb9190613566565b6112ee565b60405161020d9190613612565b60405180910390f35b610230600480360381019061022b9190613166565b6113b7565b60405161023d91906137ff565b60405180910390f35b3373ffffffffffffffffffffffffffffffffffffffff1660008054906101000a900473ffffffffffffffffffffffffffffffffffffffff1673ffffffffffffffffffffffffffffffffffffffff161461029e57600080fd5b600082600160008c67ffffffffffffffff1667ffffffffffffffff1681526020019081526020016000206005018190555081600160008c67ffffffffffffffff1667ffffffffffffffff1681526020019081526020016000206006018190555060005b87518160ff1610156107365761031561285d565b600073ffffffffffffffffffffffffffffffffffffffff168a8360ff168151811061034357610342613821565b5b602002602001015173ffffffffffffffffffffffffffffffffffffffff161461041b57898260ff168151811061037c5761037b613821565b5b6020026020010151600160008e67ffffffffffffffff1667ffffffffffffffff16815260200190815260200160002060040160008d8560ff16815181106103c6576103c5613821565b5b6020026020010151815260200190815260200160002060006101000a81548173ffffffffffffffffffffffffffffffffffffffff021916908373ffffffffffffffffffffffffffffffffffffffff1602179055505b6002600881111561042f5761042e61323e565b5b868360ff168151811061044557610444613821565b5b6020026020010151600881111561045f5761045e61323e565b5b1461052b576040518060a00160405280600060028111156104835761048261323e565b5b8152602001878460ff168151811061049e5761049d613821565b5b602002602001015160088111156104b8576104b761323e565b5b81526020018c8460ff16815181106104d3576104d2613821565b5b60200260200101518152602001898460ff16815181106104f6576104f5613821565b5b60200260200101518152602001888460ff168151811061051957610518613821565b5b6020026020010151815250905061060e565b6040518060a001604052806001600281111561054a5761054961323e565b5b8152602001878460ff168151811061056557610564613821565b5b6020026020010151600881111561057f5761057e61323e565b5b81526020018c8460ff168151811061059a57610599613821565b5b60200260200101518152602001898460ff16815181106105bd576105bc613821565b5b60200260200101518152602001888460ff16815181106105e0576105df613821565b5b60200260200101518152509050888260ff168151811061060357610602613821565b5b602002602001015192505b80600160008e67ffffffffffffffff1667ffffffffffffffff16815260200190815260200160002060000160008b8560ff168151811061065157610650613821565b5b602002602001015167ffffffffffffffff1667ffffffffffffffff16815260200190815260200160002060008201518160000160006101000a81548160ff021916908360028111156106a6576106a561323e565b5b021790555060208201518160000160016101000a81548160ff021916908360088111156106d6576106d561323e565b5b02179055506040820151816001015560608201518160020190805190602001906107019291906128b3565b50608082015181600301908051906020019061071e9291906128b3565b5090505050808061072e9061388c565b915050610301565b506107418a82610753565b50505050505050505050565b50505050565b6000600160008467ffffffffffffffff1667ffffffffffffffff16815260200190815260200160002060000160008367ffffffffffffffff1667ffffffffffffffff16815260200190815260200160002090506107b083836115b9565b60005b81600201805490508160ff1610156108e7576000600160008667ffffffffffffffff1667ffffffffffffffff1681526020019081526020016000206000016000846002018460ff168154811061080c5761080b613821565b5b90600052602060002090600491828204019190066008029054906101000a900467ffffffffffffffff1667ffffffffffffffff1667ffffffffffffffff168152602001908152602001600020905060018160000160006101000a81548160ff021916908360028111156108825761088161323e565b5b02179055506108d3836002018360ff16815481106108a3576108a2613821565b5b90600052602060002090600491828204019190066008029054906101000a900467ffffffffffffffff1686611638565b5080806108df9061388c565b9150506107b3565b507fa09a3100a40a1aaef364ab44513d7fb46dda1a306b5615910007fc3faa4a61a783836040516109199291906138c4565b60405180910390a1505050565b6000600160008567ffffffffffffffff1667ffffffffffffffff16815260200190815260200160002060020160008467ffffffffffffffff1667ffffffffffffffff168152602001908152602001600020600083815260200190815260200160002060009054906101000a900460ff1690509392505050565b6109a761296f565b600160008467ffffffffffffffff1667ffffffffffffffff16815260200190815260200160002060030160008367ffffffffffffffff1667ffffffffffffffff168152602001908152602001600020604051806060016040529081600082015481526020016001820160009054906101000a900460ff166004811115610a3057610a2f61323e565b5b6004811115610a4257610a4161323e565b5b8152602001600282015481525050905092915050565b3373ffffffffffffffffffffffffffffffffffffffff1660008054906101000a900473ffffffffffffffffffffffffffffffffffffffff1673ffffffffffffffffffffffffffffffffffffffff1614610ab057600080fd5b60005b84518160ff161015610b845760018060008967ffffffffffffffff1667ffffffffffffffff1681526020019081526020016000206002016000878460ff1681518110610b0257610b01613821565b5b602002602001015167ffffffffffffffff1667ffffffffffffffff1681526020019081526020016000206000868460ff1681518110610b4457610b43613821565b5b6020026020010151815260200190815260200160002060006101000a81548160ff0219169083151502179055508080610b7c9061388c565b915050610ab3565b5060005b85518160ff161015610cde576040518060600160405280858360ff1681518110610bb557610bb4613821565b5b60200260200101518152602001848360ff1681518110610bd857610bd7613821565b5b60200260200101516004811115610bf257610bf161323e565b5b8152602001838360ff1681518110610c0d57610c0c613821565b5b6020026020010151815250600160008967ffffffffffffffff1667ffffffffffffffff1681526020019081526020016000206003016000888460ff1681518110610c5a57610c59613821565b5b602002602001015167ffffffffffffffff1667ffffffffffffffff1681526020019081526020016000206000820151816000015560208201518160010160006101000a81548160ff02191690836004811115610cb957610cb861323e565b5b0217905550604082015181600201559050508080610cd69061388c565b915050610b88565b50505050505050565b6000600160008667ffffffffffffffff1667ffffffffffffffff168152602001908152602001600020905060005b83518160ff161015610df957600115158260020160008767ffffffffffffffff1667ffffffffffffffff1681526020019081526020016000206000868460ff1681518110610d6657610d65613821565b5b6020026020010151815260200190815260200160002060009054906101000a900460ff16151503610de657828160ff1681518110610da757610da6613821565b5b6020026020010151826001016000868460ff1681518110610dcb57610dca613821565b5b60200260200101518152602001908152602001600020819055505b8080610df19061388c565b915050610d15565b505050505050565b60008383836000600160008567ffffffffffffffff1667ffffffffffffffff16815260200190815260200160002060000160008467ffffffffffffffff1667ffffffffffffffff168152602001908152602001600020600101549050600160008567ffffffffffffffff1667ffffffffffffffff168152602001908152602001600020600401600082815260200190815260200160002060009054906101000a900473ffffffffffffffffffffffffffffffffffffffff1673ffffffffffffffffffffffffffffffffffffffff168273ffffffffffffffffffffffffffffffffffffffff1614610ef057600080fd5b878760016008811115610f0657610f0561323e565b5b600160008467ffffffffffffffff1667ffffffffffffffff16815260200190815260200160002060000160008367ffffffffffffffff1667ffffffffffffffff16815260200190815260200160002060000160019054906101000a900460ff166008811115610f7857610f7761323e565b5b14610f8257600080fd5b60016002811115610f9657610f9561323e565b5b600160008467ffffffffffffffff1667ffffffffffffffff16815260200190815260200160002060000160008367ffffffffffffffff1667ffffffffffffffff16815260200190815260200160002060000160009054906101000a900460ff1660028111156110085761100761323e565b5b1461101257600080fd5b600196505050505050509392505050565b6000600160008467ffffffffffffffff1667ffffffffffffffff16815260200190815260200160002060000160008367ffffffffffffffff1667ffffffffffffffff16815260200190815260200160002060030160008154811061108a57611089613821565b5b90600052602060002090600491828204019190066008029054906101000a900467ffffffffffffffff1690506000600160008567ffffffffffffffff1667ffffffffffffffff16815260200190815260200160002060000160008367ffffffffffffffff1667ffffffffffffffff1681526020019081526020016000206040518060a00160405290816000820160009054906101000a900460ff1660028111156111375761113661323e565b5b60028111156111495761114861323e565b5b81526020016000820160019054906101000a900460ff1660088111156111725761117161323e565b5b60088111156111845761118361323e565b5b8152602001600182015481526020016002820180548060200260200160405190810160405280929190818152602001828054801561121557602002820191906000526020600020906000905b82829054906101000a900467ffffffffffffffff1667ffffffffffffffff16815260200190600801906020826007010492830192600103820291508084116111d05790505b50505050508152602001600382018054806020026020016040519081016040528092919081815260200182805480156112a157602002820191906000526020600020906000905b82829054906101000a900467ffffffffffffffff1667ffffffffffffffff168152602001906008019060208260070104928301926001038202915080841161125c5790505b5050505050815250509050600760088111156112c0576112bf61323e565b5b816020015160088111156112d7576112d661323e565b5b036112e8576112e78185856118bc565b5b50505050565b60606000604067ffffffffffffffff81111561130d5761130c612a2f565b5b6040519080825280601f01601f19166020018201604052801561133f5781602001600182028036833780820191505090505b5090506000600160008567ffffffffffffffff1667ffffffffffffffff1681526020019081526020016000206005015490506000600160008667ffffffffffffffff1667ffffffffffffffff168152602001908152602001600020600601549050816020840152806040840152829350505050919050565b6113bf61285d565b600160008467ffffffffffffffff1667ffffffffffffffff16815260200190815260200160002060000160008367ffffffffffffffff1667ffffffffffffffff1681526020019081526020016000206040518060a00160405290816000820160009054906101000a900460ff16600281111561143e5761143d61323e565b5b60028111156114505761144f61323e565b5b81526020016000820160019054906101000a900460ff1660088111156114795761147861323e565b5b600881111561148b5761148a61323e565b5b8152602001600182015481526020016002820180548060200260200160405190810160405280929190818152602001828054801561151c57602002820191906000526020600020906000905b82829054906101000a900467ffffffffffffffff1667ffffffffffffffff16815260200190600801906020826007010492830192600103820291508084116114d75790505b50505050508152602001600382018054806020026020016040519081016040528092919081815260200182805480156115a857602002820191906000526020600020906000905b82829054906101000a900467ffffffffffffffff1667ffffffffffffffff16815260200190600801906020826007010492830192600103820291508084116115635790505b505050505081525050905092915050565b6002600160008467ffffffffffffffff1667ffffffffffffffff16815260200190815260200160002060000160008367ffffffffffffffff1667ffffffffffffffff16815260200190815260200160002060000160006101000a81548160ff0219169083600281111561162f5761162e61323e565b5b02179055505050565b6000600160008367ffffffffffffffff1667ffffffffffffffff16815260200190815260200160002060000160008467ffffffffffffffff1667ffffffffffffffff16815260200190815260200160002090506003600881111561169f5761169e61323e565b5b8160000160019054906101000a900460ff1660088111156116c3576116c261323e565b5b036116d7576116d282846119c1565b6118b7565b600460088111156116eb576116ea61323e565b5b8160000160019054906101000a900460ff16600881111561170f5761170e61323e565b5b036117235761171e82846120df565b6118b6565b600560088111156117375761173661323e565b5b8160000160019054906101000a900460ff16600881111561175b5761175a61323e565b5b148061179c5750600760088111156117765761177561323e565b5b8160000160019054906101000a900460ff16600881111561179a5761179961323e565b5b145b156117b0576117ab82846123e6565b6118b5565b600660088111156117c4576117c361323e565b5b8160000160019054906101000a900460ff1660088111156117e8576117e761323e565b5b036117fc576117f781836126df565b6118b4565b60088081111561180f5761180e61323e565b5b8160000160019054906101000a900460ff1660088111156118335761183261323e565b5b036118475761184282846115b9565b6118b3565b6001600881111561185b5761185a61323e565b5b8160000160019054906101000a900460ff16600881111561187f5761187e61323e565b5b036118b25760018160000160006101000a81548160ff021916908360028111156118ac576118ab61323e565b5b02179055505b5b5b5b5b5b505050565b60005b8360600151518160ff1610156119bb578167ffffffffffffffff1684606001518260ff16815181106118f4576118f3613821565b5b602002602001015167ffffffffffffffff16146119a8576000600160008567ffffffffffffffff1667ffffffffffffffff168152602001908152602001600020600001600086606001518460ff168151811061195357611952613821565b5b602002602001015167ffffffffffffffff1667ffffffffffffffff16815260200190815260200160002060000160006101000a81548160ff021916908360028111156119a2576119a161323e565b5b02179055505b80806119b39061388c565b9150506118bf565b50505050565b6000600160008467ffffffffffffffff1667ffffffffffffffff16815260200190815260200160002060000160008367ffffffffffffffff1667ffffffffffffffff1681526020019081526020016000206040518060a00160405290816000820160009054906101000a900460ff166002811115611a4257611a4161323e565b5b6002811115611a5457611a5361323e565b5b81526020016000820160019054906101000a900460ff166008811115611a7d57611a7c61323e565b5b6008811115611a8f57611a8e61323e565b5b81526020016001820154815260200160028201805480602002602001604051908101604052809291908181526020018280548015611b2057602002820191906000526020600020906000905b82829054906101000a900467ffffffffffffffff1667ffffffffffffffff1681526020019060080190602082600701049283019260010382029150808411611adb5790505b5050505050815260200160038201805480602002602001604051908101604052809291908181526020018280548015611bac57602002820191906000526020600020906000905b82829054906101000a900467ffffffffffffffff1667ffffffffffffffff1681526020019060080190602082600701049283019260010382029150808411611b675790505b50505050508152505090506001816060015151148015611c6e575060006004811115611bdb57611bda61323e565b5b600160008567ffffffffffffffff1667ffffffffffffffff16815260200190815260200160002060030160008360600151600081518110611c1f57611c1e613821565b5b602002602001015167ffffffffffffffff1667ffffffffffffffff16815260200190815260200160002060010160009054906101000a900460ff166004811115611c6c57611c6b61323e565b5b145b15611d4b576000600160008567ffffffffffffffff1667ffffffffffffffff16815260200190815260200160002060000160008360600151600081518110611cb957611cb8613821565b5b602002602001015167ffffffffffffffff1667ffffffffffffffff168152602001908152602001600020905060018160000160006101000a81548160ff02191690836002811115611d0d57611d0c61323e565b5b0217905550611d3b8260600151600081518110611d2d57611d2c613821565b5b602002602001015185611638565b611d4584846115b9565b506120da565b60005b8160600151518160ff1610156120d8576000600160008667ffffffffffffffff1667ffffffffffffffff168152602001908152602001600020600301600084606001518460ff1681518110611da657611da5613821565b5b602002602001015167ffffffffffffffff1667ffffffffffffffff168152602001908152602001600020604051806060016040529081600082015481526020016001820160009054906101000a900460ff166004811115611e0a57611e0961323e565b5b6004811115611e1c57611e1b61323e565b5b815260200160028201548152505090506000600160008767ffffffffffffffff1667ffffffffffffffff168152602001908152602001600020600001600085606001518560ff1681518110611e7457611e73613821565b5b602002602001015167ffffffffffffffff1667ffffffffffffffff16815260200190815260200160002090506000600160008867ffffffffffffffff1667ffffffffffffffff16815260200190815260200160002060010160008460000151815260200190815260200160002054905060016004811115611ef857611ef761323e565b5b83602001516004811115611f0f57611f0e61323e565b5b148015611f1f5750826040015181145b15611f815760018260000160006101000a81548160ff02191690836002811115611f4c57611f4b61323e565b5b0217905550611f7c85606001518560ff1681518110611f6e57611f6d613821565b5b602002602001015188611638565b6120b8565b60036004811115611f9557611f9461323e565b5b83602001516004811115611fac57611fab61323e565b5b148015611fbc5750826040015181115b1561201e5760018260000160006101000a81548160ff02191690836002811115611fe957611fe861323e565b5b021790555061201985606001518560ff168151811061200b5761200a613821565b5b602002602001015188611638565b6120b7565b6004808111156120315761203061323e565b5b836020015160048111156120485761204761323e565b5b1480156120585750826040015181105b156120b65760018260000160006101000a81548160ff021916908360028111156120855761208461323e565b5b02179055506120b585606001518560ff16815181106120a7576120a6613821565b5b602002602001015188611638565b5b5b5b6120c287876115b9565b50505080806120d09061388c565b915050611d4e565b505b505050565b6000600160008467ffffffffffffffff1667ffffffffffffffff16815260200190815260200160002060000160008367ffffffffffffffff1667ffffffffffffffff1681526020019081526020016000206040518060a00160405290816000820160009054906101000a900460ff1660028111156121605761215f61323e565b5b60028111156121725761217161323e565b5b81526020016000820160019054906101000a900460ff16600881111561219b5761219a61323e565b5b60088111156121ad576121ac61323e565b5b8152602001600182015481526020016002820180548060200260200160405190810160405280929190818152602001828054801561223e57602002820191906000526020600020906000905b82829054906101000a900467ffffffffffffffff1667ffffffffffffffff16815260200190600801906020826007010492830192600103820291508084116121f95790505b50505050508152602001600382018054806020026020016040519081016040528092919081815260200182805480156122ca57602002820191906000526020600020906000905b82829054906101000a900467ffffffffffffffff1667ffffffffffffffff16815260200190600801906020826007010492830192600103820291508084116122855790505b505050505081525050905060005b8160800151518160ff1610156123e0576000600160008667ffffffffffffffff1667ffffffffffffffff168152602001908152602001600020600001600084608001518460ff16815181106123305761232f613821565b5b602002602001015167ffffffffffffffff1667ffffffffffffffff168152602001908152602001600020905060028081111561236f5761236e61323e565b5b8160000160009054906101000a900460ff1660028111156123935761239261323e565b5b036123cc576123a285856115b9565b6123cb83606001516000815181106123bd576123bc613821565b5b602002602001015186611638565b5b5080806123d89061388c565b9150506122d8565b50505050565b6000600160008467ffffffffffffffff1667ffffffffffffffff16815260200190815260200160002060000160008367ffffffffffffffff1667ffffffffffffffff1681526020019081526020016000206040518060a00160405290816000820160009054906101000a900460ff1660028111156124675761246661323e565b5b60028111156124795761247861323e565b5b81526020016000820160019054906101000a900460ff1660088111156124a2576124a161323e565b5b60088111156124b4576124b361323e565b5b8152602001600182015481526020016002820180548060200260200160405190810160405280929190818152602001828054801561254557602002820191906000526020600020906000905b82829054906101000a900467ffffffffffffffff1667ffffffffffffffff16815260200190600801906020826007010492830192600103820291508084116125005790505b50505050508152602001600382018054806020026020016040519081016040528092919081815260200182805480156125d157602002820191906000526020600020906000905b82829054906101000a900467ffffffffffffffff1667ffffffffffffffff168152602001906008019060208260070104928301926001038202915080841161258c5790505b50505050508152505090506125e683836115b9565b60005b8160600151518160ff1610156126d9576000600160008667ffffffffffffffff1667ffffffffffffffff168152602001908152602001600020600001600084606001518460ff168151811061264157612640613821565b5b602002602001015167ffffffffffffffff1667ffffffffffffffff168152602001908152602001600020905060018160000160006101000a81548160ff021916908360028111156126955761269461323e565b5b02179055506126c583606001518360ff16815181106126b7576126b6613821565b5b602002602001015186611638565b5080806126d19061388c565b9150506125e9565b50505050565b60005b82600301805490508160ff1610156127e0576000600160008467ffffffffffffffff1667ffffffffffffffff1681526020019081526020016000206000016000856003018460ff168154811061273b5761273a613821565b5b90600052602060002090600491828204019190066008029054906101000a900467ffffffffffffffff1667ffffffffffffffff1667ffffffffffffffff168152602001908152602001600020905060028081111561279c5761279b61323e565b5b8160000160009054906101000a900460ff1660028111156127c0576127bf61323e565b5b146127cc575050612859565b5080806127d89061388c565b9150506126e2565b5060028260000160006101000a81548160ff021916908360028111156128095761280861323e565b5b02179055506128588260020160008154811061282857612827613821565b5b90600052602060002090600491828204019190066008029054906101000a900467ffffffffffffffff1682611638565b5b5050565b6040518060a001604052806000600281111561287c5761287b61323e565b5b8152602001600060088111156128955761289461323e565b5b81526020016000801916815260200160608152602001606081525090565b8280548282559060005260206000209060030160049004810192821561295e5791602002820160005b8382111561292857835183826101000a81548167ffffffffffffffff021916908367ffffffffffffffff16021790555092602001926008016020816007010492830192600103026128dc565b801561295c5782816101000a81549067ffffffffffffffff0219169055600801602081600701049283019260010302612928565b505b50905061296b91906129a8565b5090565b604051806060016040528060008019168152602001600060048111156129985761299761323e565b5b8152602001600080191681525090565b5b808211156129c15760008160009055506001016129a9565b5090565b6000604051905090565b600080fd5b600080fd5b600067ffffffffffffffff82169050919050565b6129f6816129d9565b8114612a0157600080fd5b50565b600081359050612a13816129ed565b92915050565b600080fd5b6000601f19601f8301169050919050565b7f4e487b7100000000000000000000000000000000000000000000000000000000600052604160045260246000fd5b612a6782612a1e565b810181811067ffffffffffffffff82111715612a8657612a85612a2f565b5b80604052505050565b6000612a996129c5565b9050612aa58282612a5e565b919050565b600067ffffffffffffffff821115612ac557612ac4612a2f565b5b602082029050602081019050919050565b600080fd5b6000819050919050565b612aee81612adb565b8114612af957600080fd5b50565b600081359050612b0b81612ae5565b92915050565b6000612b24612b1f84612aaa565b612a8f565b90508083825260208201905060208402830185811115612b4757612b46612ad6565b5b835b81811015612b705780612b5c8882612afc565b845260208401935050602081019050612b49565b5050509392505050565b600082601f830112612b8f57612b8e612a19565b5b8135612b9f848260208601612b11565b91505092915050565b600067ffffffffffffffff821115612bc357612bc2612a2f565b5b602082029050602081019050919050565b600073ffffffffffffffffffffffffffffffffffffffff82169050919050565b6000612bff82612bd4565b9050919050565b612c0f81612bf4565b8114612c1a57600080fd5b50565b600081359050612c2c81612c06565b92915050565b6000612c45612c4084612ba8565b612a8f565b90508083825260208201905060208402830185811115612c6857612c67612ad6565b5b835b81811015612c915780612c7d8882612c1d565b845260208401935050602081019050612c6a565b5050509392505050565b600082601f830112612cb057612caf612a19565b5b8135612cc0848260208601612c32565b91505092915050565b600067ffffffffffffffff821115612ce457612ce3612a2f565b5b602082029050602081019050919050565b6000612d08612d0384612cc9565b612a8f565b90508083825260208201905060208402830185811115612d2b57612d2a612ad6565b5b835b81811015612d545780612d408882612a04565b845260208401935050602081019050612d2d565b5050509392505050565b600082601f830112612d7357612d72612a19565b5b8135612d83848260208601612cf5565b91505092915050565b600067ffffffffffffffff821115612da757612da6612a2f565b5b602082029050602081019050919050565b6000612dcb612dc684612d8c565b612a8f565b90508083825260208201905060208402830185811115612dee57612ded612ad6565b5b835b81811015612e3557803567ffffffffffffffff811115612e1357612e12612a19565b5b808601612e208982612d5e565b85526020850194505050602081019050612df0565b5050509392505050565b600082601f830112612e5457612e53612a19565b5b8135612e64848260208601612db8565b91505092915050565b600067ffffffffffffffff821115612e8857612e87612a2f565b5b602082029050602081019050919050565b60098110612ea657600080fd5b50565b600081359050612eb881612e99565b92915050565b6000612ed1612ecc84612e6d565b612a8f565b90508083825260208201905060208402830185811115612ef457612ef3612ad6565b5b835b81811015612f1d5780612f098882612ea9565b845260208401935050602081019050612ef6565b5050509392505050565b600082601f830112612f3c57612f3b612a19565b5b8135612f4c848260208601612ebe565b91505092915050565b60008060008060008060008060006101208a8c031215612f7857612f776129cf565b5b6000612f868c828d01612a04565b99505060208a013567ffffffffffffffff811115612fa757612fa66129d4565b5b612fb38c828d01612b7a565b98505060408a013567ffffffffffffffff811115612fd457612fd36129d4565b5b612fe08c828d01612c9b565b97505060608a013567ffffffffffffffff811115613001576130006129d4565b5b61300d8c828d01612d5e565b96505060808a013567ffffffffffffffff81111561302e5761302d6129d4565b5b61303a8c828d01612e3f565b95505060a08a013567ffffffffffffffff81111561305b5761305a6129d4565b5b6130678c828d01612e3f565b94505060c08a013567ffffffffffffffff811115613088576130876129d4565b5b6130948c828d01612f27565b93505060e06130a58c828d01612afc565b9250506101006130b78c828d01612afc565b9150509295985092959850929598565b600080600080608085870312156130e1576130e06129cf565b5b60006130ef87828801612a04565b945050602061310087828801612a04565b935050604085013567ffffffffffffffff811115613121576131206129d4565b5b61312d87828801612b7a565b925050606085013567ffffffffffffffff81111561314e5761314d6129d4565b5b61315a87828801612b7a565b91505092959194509250565b6000806040838503121561317d5761317c6129cf565b5b600061318b85828601612a04565b925050602061319c85828601612a04565b9150509250929050565b6000806000606084860312156131bf576131be6129cf565b5b60006131cd86828701612a04565b93505060206131de86828701612a04565b92505060406131ef86828701612afc565b9150509250925092565b60008115159050919050565b61320e816131f9565b82525050565b60006020820190506132296000830184613205565b92915050565b61323881612adb565b82525050565b7f4e487b7100000000000000000000000000000000000000000000000000000000600052602160045260246000fd5b6005811061327e5761327d61323e565b5b50565b600081905061328f8261326d565b919050565b600061329f82613281565b9050919050565b6132af81613294565b82525050565b6060820160008201516132cb600085018261322f565b5060208201516132de60208501826132a6565b5060408201516132f1604085018261322f565b50505050565b600060608201905061330c60008301846132b5565b92915050565b600067ffffffffffffffff82111561332d5761332c612a2f565b5b602082029050602081019050919050565b6005811061334b57600080fd5b50565b60008135905061335d8161333e565b92915050565b600061337661337184613312565b612a8f565b9050808382526020820190506020840283018581111561339957613398612ad6565b5b835b818110156133c257806133ae888261334e565b84526020840193505060208101905061339b565b5050509392505050565b600082601f8301126133e1576133e0612a19565b5b81356133f1848260208601613363565b91505092915050565b60008060008060008060c08789031215613417576134166129cf565b5b600061342589828a01612a04565b965050602087013567ffffffffffffffff811115613446576134456129d4565b5b61345289828a01612d5e565b955050604087013567ffffffffffffffff811115613473576134726129d4565b5b61347f89828a01612d5e565b945050606087013567ffffffffffffffff8111156134a05761349f6129d4565b5b6134ac89828a01612b7a565b935050608087013567ffffffffffffffff8111156134cd576134cc6129d4565b5b6134d989828a016133cc565b92505060a087013567ffffffffffffffff8111156134fa576134f96129d4565b5b61350689828a01612b7a565b9150509295509295509295565b60008060006060848603121561352c5761352b6129cf565b5b600061353a86828701612a04565b935050602061354b86828701612a04565b925050604061355c86828701612c1d565b9150509250925092565b60006020828403121561357c5761357b6129cf565b5b600061358a84828501612a04565b91505092915050565b600081519050919050565b600082825260208201905092915050565b60005b838110156135cd5780820151818401526020810190506135b2565b60008484015250505050565b60006135e482613593565b6135ee818561359e565b93506135fe8185602086016135af565b61360781612a1e565b840191505092915050565b6000602082019050818103600083015261362c81846135d9565b905092915050565b600381106136455761364461323e565b5b50565b600081905061365682613634565b919050565b600061366682613648565b9050919050565b6136768161365b565b82525050565b6009811061368d5761368c61323e565b5b50565b600081905061369e8261367c565b919050565b60006136ae82613690565b9050919050565b6136be816136a3565b82525050565b600081519050919050565b600082825260208201905092915050565b6000819050602082019050919050565b6136f9816129d9565b82525050565b600061370b83836136f0565b60208301905092915050565b6000602082019050919050565b600061372f826136c4565b61373981856136cf565b9350613744836136e0565b8060005b8381101561377557815161375c88826136ff565b975061376783613717565b925050600181019050613748565b5085935050505092915050565b600060a08301600083015161379a600086018261366d565b5060208301516137ad60208601826136b5565b5060408301516137c0604086018261322f565b50606083015184820360608601526137d88282613724565b915050608083015184820360808601526137f28282613724565b9150508091505092915050565b600060208201905081810360008301526138198184613782565b905092915050565b7f4e487b7100000000000000000000000000000000000000000000000000000000600052603260045260246000fd5b7f4e487b7100000000000000000000000000000000000000000000000000000000600052601160045260246000fd5b600060ff82169050919050565b60006138978261387f565b915060ff82036138aa576138a9613850565b5b600182019050919050565b6138be816129d9565b82525050565b60006040820190506138d960008301856138b5565b6138e660208301846138b5565b939250505056fea2646970667358221220b8368f397e192518bb23d64e64d52c899c13f073ee20a0c5b5da2af6a36542df64736f6c63430008110033",
  "immutableReferences": {},
  "source": "// SPDX-License-Identifier: CC-BY-SA-4.0\r\npragma solidity >= 0.5.0 < 0.9.0;\r\nimport \"./MARTSIAEth.sol\";\r\n\r\n//Registry contract -> tiene traccia di tutte le istanze aventi [elementi, stati, dati e utenti] per istanza\r\ncontract StateContract{\r\n    //                  0    ,   1 ,  2   ,    3    ,    4   ,    5     ,     6   ,      7     ,  8\r\n    enum ElementType {ELEMENT, MSG, START, EX_SPLIT, EX_JOIN, PAR_SPLIT, PAR_JOIN, EVENT_BASED, END}\r\n    enum ElementState {DISABLED, ENABLED, COMPLETED}\r\n    enum Operator {NO_CONDITION, EQ, NOT_EQ, G_THAN, L_THAN}\r\n    address chorchainAddress = 0x62AbA4475128080Dd4B59FA5D7E2fAEb2B720A21;\r\n\r\n    event functionDone(uint64, uint64);\r\n\r\n    struct Instance {\r\n        //messageIDs -> messages\r\n        mapping(uint64 => Element) allElements;\r\n        //contains all the process intstances\r\n        mapping(bytes32 => bytes32) publicVariables;\r\n        //associates variables to message and then more values\r\n        //apping(bytes32 => mapping (bytes32 => bytes32)) publicVariables;\r\n        //contains the public variables allowed. This is used to enforce what user can insert\r\n        mapping(uint64 => mapping (bytes32 => bool)) allowedVars;\r\n        //maps outgoing branches (next elements from an exclusive gw) to conditions\r\n        mapping(uint64 => Condition) conditions;\r\n        mapping(bytes32 => address) roles;\r\n        bytes32 policyPart1;\r\n        bytes32 policyPart2;\r\n    }\r\n\r\n    //an element contains its status (enabled/disabled), the participant address that can execute it and the reference to the next elements\r\n    struct Element{\r\n        ElementState state;\r\n        ElementType elementType;\r\n        bytes32 role;\r\n        uint64[] next;\r\n        uint64[] previous;\r\n    }\r\n\r\n    //it expresses a condition in a certain path. it contains the public variable to evaluate, the type of operand and the value to be used in the comparison\r\n    struct Condition{\r\n        bytes32 publicVar;\r\n        Operator op;\r\n        bytes32 value;\r\n    }\r\n\r\n    //it contains all the instances\r\n    mapping(uint64 => Instance) allInstances;\r\n    //address private martsiaAddress = 0x85529AC7416B246598f0Ca16191389c6d13e6b4a;\r\n    constructor(address martsiaAddress){\r\n        MARTSIAEth m = MARTSIAEth(martsiaAddress);\r\n        m.setStateAddress();\r\n    }\r\n\r\n    function getInstancePolicy(uint64 instanceId) public view returns(bytes memory){\r\n        bytes memory joined = new bytes(64);\r\n        bytes32 p1 = allInstances[instanceId].policyPart1;\r\n        bytes32 p2 = allInstances[instanceId].policyPart2;\r\n        assembly {\r\n            mstore(add(joined, 32), p1)\r\n            mstore(add(joined, 64), p2)\r\n        }\r\n        return joined;\r\n    }\r\n    //checks if sender user is the one enabled in the element that is executed\r\n    modifier UserRoleCheck(uint64 instanceId, uint64 msgToExecute, address user) {\r\n        bytes32 enabledRole = allInstances[instanceId].allElements[msgToExecute].role;\r\n        require(user == allInstances[instanceId].roles[enabledRole]);\r\n        _;\r\n    }\r\n\r\n    /*modifier onlyMartsia(){\r\n        require(msg.sender == martsiaAddress);\r\n        _;\r\n    }*/\r\n\r\n    //checks if the element to execute is enabled\r\n    modifier ElementStatusCheck(uint64 instanceId, uint64 msgToExecute) {\r\n        require(allInstances[instanceId].allElements[msgToExecute].elementType == ElementType.MSG);\r\n        require(allInstances[instanceId].allElements[msgToExecute].state == ElementState.ENABLED);\r\n        _;\r\n    }\r\n\r\n    function getMartsiaChecks(uint64 instanceId, uint64 msgToExecute, address user) public view UserRoleCheck(instanceId, msgToExecute, user)\r\n    ElementStatusCheck(instanceId, msgToExecute) returns(bool){\r\n        return true;\r\n    }\r\n\r\n\r\n    //checks if the invoker is ChorChain\r\n    modifier ChorChain() {\r\n        require(chorchainAddress == msg.sender);\r\n        _;\r\n    }\r\n\r\n    //per modifier su martsia\r\n    function getInstanceElement(uint64 instanceId, uint64 _element) public view returns(Element memory){\r\n        return allInstances[instanceId].allElements[_element];\r\n    }\r\n\r\n\r\n\r\n    function getCondition(uint64 instanceId, uint64 element) public view returns(Condition memory){\r\n        return allInstances[instanceId].conditions[element];\r\n    }\r\n\r\n    function getAllowedVar(uint64 instanceId, uint64 element, bytes32 varName) public view returns(bool){\r\n        return allInstances[instanceId].allowedVars[element][varName];\r\n    }\r\n\r\n\r\n    /*\r\n    Function to create a new instance structure in the smart contract\r\n    it takes in input the instance id, list of BPMN elements and their nexts to recreate the choreography tree, list of users for elements,\r\n    the first element to enable and the hash for [reading policies --> TODO]\r\n    */\r\n    //TODO------> AVOID INSTANCES TO OVERWRITE ALREADY EXISTING ONES\r\n    function instantiateProcess(uint64 instanceId, bytes32[] memory _roles, address[] memory users, uint64[] memory elements,\r\n        uint64[][] memory nextElements, uint64[][] memory previousElements, ElementType[] memory types,\r\n        bytes32 policy1, bytes32 policy2) public ChorChain{\r\n        uint64 startEvent;\r\n        allInstances[instanceId].policyPart1 = policy1;\r\n        allInstances[instanceId].policyPart2 = policy2;\r\n        for(uint8 i = 0; i < elements.length; i++){\r\n            Element memory e;\r\n            if(users[i] != address(0x0)){\r\n                allInstances[instanceId].roles[_roles[i]] = users[i];\r\n            }\r\n\r\n            //if the element is the start event then set it to enabled. the start event is hard coded since it is always present\r\n            //and it is always the starting point\r\n            if(types[i] != ElementType.START){\r\n                e = Element(ElementState.DISABLED, types[i], _roles[i], nextElements[i], previousElements[i]);\r\n            }else{\r\n                e = Element(ElementState.ENABLED, types[i], _roles[i], nextElements[i], previousElements[i]);\r\n                startEvent = elements[i];\r\n            }\r\n            allInstances[instanceId].allElements[elements[i]] = e;\r\n        }\r\n        //automatically executes the start event\r\n        changeStatus(instanceId, startEvent);\r\n    }\r\n\r\n    //function for creating a condition attached to an element. It requires the instance id, the set of elements to which associate conditions,\r\n    //the set of public variables associated with the conditions, the operators associated with the conditions and the values used in the condition\r\n    /*elementWithConditions = elements outgoing an exclusive gateway\r\n      elementWithPublicVar = messages having a public varaible\r\n      publicVars = left side of the operator. public variables used in choices\r\n      operators =\r\n      values = right side of the operator\r\n    */\r\n    function createConditions(uint64 instanceId, uint64[] memory elementWithConditions, uint64[] memory elementWithPublicVar,\r\n        bytes32[] memory publicVars, Operator[] memory operators, bytes32[] memory values) public ChorChain{\r\n        for(uint8 i = 0; i < elementWithPublicVar.length; i++){\r\n            allInstances[instanceId].allowedVars[elementWithPublicVar[i]][publicVars[i]] = true;\r\n        }\r\n        for(uint8 i = 0; i < elementWithConditions.length; i++){\r\n            //allow public variables attached to corresponding elements\r\n            allInstances[instanceId].conditions[elementWithConditions[i]] = Condition(publicVars[i], operators[i], values[i]);\r\n        }\r\n    }\r\n\r\n    /*function that simulates the cipher in Martsia contract.\r\n    it has the modifiers for checking if 1) the element is a message, 2) the element is enabled, and 3) the user is the designed one\r\n    inside the function it first checks if the message to execute comes after an event based gateway and in case it invokes the function\r\n    for disabling the other concurrent ones.\r\n    Then, it invokes the function for changing the status of the message and the next ones\r\n    */\r\n    function checkEventBased(uint64 instanceId, uint64 msgToExecute) public {\r\n        uint64 previousId = allInstances[instanceId].allElements[msgToExecute].previous[0];\r\n        Element memory previousElement = allInstances[instanceId].allElements[previousId];\r\n        //if the previous element is an event based gw then invoke the function for disabling the concurrent ones\r\n        if(previousElement.elementType == ElementType.EVENT_BASED){\r\n            eventBased(previousElement, instanceId, msgToExecute);\r\n        }\r\n    }\r\n\r\n    function cipher(uint64 instanceId, uint64 msgToExecute, bytes32[] memory publicvarNames, bytes32[] memory publicVarValues) public {\r\n\r\n        //it manages the eventual update of public variables used later for the conditions in exclusive gateways\r\n        //setPublicvariables(instanceId, msgToExecute, publicvarNames, publicVarValues);\r\n        //it sets to COMPLETED the current message and enables the next ones\r\n        //changeStatus(instanceId, msgToExecute);\r\n        //return \"sei stato abilitato complimenti\";\r\n    }\r\n\r\n    //function for setting the value of a public variable previously allowed\r\n    function setPublicvariables(uint64 instanceId, uint64 msgToExecute, bytes32[] memory publicVarNames, bytes32[] memory publicVarValues) public {\r\n        Instance storage currentInstance = allInstances[instanceId];\r\n        //for each user input variable, if it is allowed then insert it\r\n        for(uint8 i = 0; i < publicVarNames.length; i++){\r\n            if(currentInstance.allowedVars[msgToExecute][publicVarNames[i]] == true){\r\n                currentInstance.publicVariables[publicVarNames[i]] = publicVarValues[i];\r\n            }\r\n        }\r\n    }\r\n\r\n\r\n    //checks if an element is a gateway and in case executes it\r\n    function executeGateway(uint64 elementToExecute, uint64 instanceId) internal {\r\n        Element storage element = allInstances[instanceId].allElements[elementToExecute];\r\n        if(element.elementType == ElementType.EX_SPLIT){\r\n            ex_split(instanceId, elementToExecute);\r\n        }else if(element.elementType == ElementType.EX_JOIN){\r\n            ex_join(instanceId, elementToExecute);\r\n        }else if(element.elementType == ElementType.PAR_SPLIT || element.elementType == ElementType.EVENT_BASED){\r\n            //in case of parallel split and event based gateways just enable the next elements (also called outgoing)\r\n            par_event_split(instanceId, elementToExecute);\r\n        }else if(element.elementType == ElementType.PAR_JOIN){\r\n            par_join(element, instanceId);\r\n        }else if(element.elementType == ElementType.END){\r\n            //if the element is an end event just complete it thus terminating the process instance flow\r\n            setCompleted(instanceId, elementToExecute);\r\n            //element.state = ElementState.COMPLETED;\r\n        }else if(element.elementType == ElementType.MSG){\r\n            element.state = ElementState.ENABLED;\r\n        }\r\n    }\r\n\r\n\r\n    //the function sets the status of the current element to false and of the next elements to true\r\n    //then it invokes the function for checking if the element is a gateway eventually executing it\r\n    function changeStatus(uint64 instanceId, uint64 elementToExecute) public {\r\n        Element storage currentElement = allInstances[instanceId].allElements[elementToExecute];\r\n        //currentElement.state = ElementState.COMPLETED;\r\n        setCompleted(instanceId, elementToExecute);\r\n        //for each next element enables it and triggers the function for eventually execute it in case it is a gateway\r\n        for(uint8 i = 0; i < currentElement.next.length; i++){\r\n            Element storage nextElement = allInstances[instanceId].allElements[currentElement.next[i]];\r\n            nextElement.state = ElementState.ENABLED;\r\n            executeGateway(currentElement.next[i], instanceId);\r\n        }\r\n        emit functionDone(instanceId, elementToExecute);\r\n\r\n    }\r\n\r\n    //function for the parallel split gateway, it enables the next elements and if they are gateways execute them\r\n    function par_event_split(uint64 instanceId, uint64 element) internal {\r\n        Element memory gateway = allInstances[instanceId].allElements[element];\r\n        setCompleted(instanceId, element);\r\n        //gateway.state = ElementState.COMPLETED;\r\n        //for each element outgoing the gateway enable it and check if it is a gateway\r\n        for(uint8 i = 0; i < gateway.next.length; i++){\r\n            Element storage e = allInstances[instanceId].allElements[gateway.next[i]];\r\n            e.state = ElementState.ENABLED;\r\n            executeGateway(gateway.next[i], instanceId);\r\n        }\r\n    }\r\n\r\n    //function for the parallel JOIN gateway, it enables the next elements (and if they are gateways execute them) only if the previous were both executed\r\n    function par_join(Element storage gateway, uint64 instanceId) internal {\r\n        for(uint8 i = 0; i < gateway.previous.length; i++){\r\n            Element storage e = allInstances[instanceId].allElements[gateway.previous[i]];\r\n            //if there is an element still not executed then interrupts the execution of the function\r\n            if(e.state != ElementState.COMPLETED){\r\n                return;\r\n            }\r\n        }\r\n        gateway.state = ElementState.COMPLETED;\r\n        //if the join is ok then check if the next element (join has only 1 outgoing) is a gateway\r\n        executeGateway(gateway.next[0], instanceId);\r\n    }\r\n\r\n    //EVENT-BASED gateway is a race condition, the first element to be executed wins and disables the other ones\r\n    //this function manages the disabling of the other elements outgoing from the event based not boing the current to execute\r\n    function eventBased(Element memory gateway, uint64 instanceId, uint64 msgToExecute) internal {\r\n        //iter outgoing elements from the event based to disable the one not being executed\r\n        for(uint8 i = 0; i < gateway.next.length; i ++){\r\n            //If outgoing element is not the message to execute then disable it\r\n            if(gateway.next[i] != msgToExecute){\r\n                allInstances[instanceId].allElements[gateway.next[i]].state = ElementState.DISABLED;\r\n            }\r\n        }\r\n    }\r\n\r\n    //function for the parallel JOIN gateway, it enables the next elements (and if they are gateways execute them) only if the previous were both executed\r\n    function ex_join(uint64 instanceId, uint64 element) internal {\r\n        Element memory gateway = allInstances[instanceId].allElements[element];\r\n        for(uint8 i = 0; i < gateway.previous.length; i++){\r\n            Element storage e = allInstances[instanceId].allElements[gateway.previous[i]];\r\n            //if there is an element still not executed then interrupts the execution of the function\r\n            if(e.state == ElementState.COMPLETED){\r\n                setCompleted(instanceId, element);\r\n                //gateway.state = ElementState.COMPLETED;\r\n                //if the join is ok then check if the next element (join has only 1 outgoing) is a gateway\r\n                executeGateway(gateway.next[0], instanceId);\r\n            }\r\n        }\r\n    }\r\n\r\n    //function for the exclusive gateway, for each outgoing element checks the related condition and evaluates it\r\n    function ex_split(uint64 instanceId, uint64 element) internal{\r\n        Element memory gateway = allInstances[instanceId].allElements[element];\r\n        //if the gateway is used only as connector so has only one exit without condition then enable next element\r\n        if(gateway.next.length == 1 && allInstances[instanceId].conditions[gateway.next[0]].op == Operator.NO_CONDITION){\r\n            Element storage nextElement = allInstances[instanceId].allElements[gateway.next[0]];\r\n            nextElement.state = ElementState.ENABLED;\r\n            executeGateway(gateway.next[0], instanceId);\r\n            setCompleted(instanceId, element);\r\n        }else{\r\n            for(uint8 i = 0; i < gateway.next.length; i++){\r\n                //retrieves the condition attached to the outgoing element\r\n                Condition memory c = allInstances[instanceId].conditions[gateway.next[i]];\r\n                Element storage nextElement = allInstances[instanceId].allElements[gateway.next[i]];\r\n                //reads the public variable (the one iserted by the user) required by the condition\r\n                bytes32 publicVar = allInstances[instanceId].publicVariables[c.publicVar];\r\n                //checks if the operator is EQUAL and the public variable is equal the condition valu\r\n                if(c.op == Operator.EQ && publicVar == c.value){\r\n                    nextElement.state = ElementState.ENABLED;\r\n                    executeGateway(gateway.next[i], instanceId);\r\n                    //checks if the operator is GREATER THAN and the public variable is greater than the condition value\r\n                }else if(c.op == Operator.G_THAN && publicVar > c.value){\r\n                    nextElement.state = ElementState.ENABLED;\r\n                    executeGateway(gateway.next[i], instanceId);\r\n                    //checks if the operator is LESS THAN and the public variable is less than the condition value\r\n                }else if(c.op == Operator.L_THAN && publicVar < c.value){\r\n                    nextElement.state = ElementState.ENABLED;\r\n                    executeGateway(gateway.next[i], instanceId);\r\n                }\r\n                setCompleted(instanceId, element);\r\n                //gateway.state = ElementState.COMPLETED;\r\n            }\r\n        }\r\n    }\r\n\r\n    function setCompleted(uint64 instanceId, uint64 element) internal {\r\n        allInstances[instanceId].allElements[element].state = ElementState.COMPLETED;\r\n    }\r\n\r\n\r\n}\r\n",
  "sourcePath": "/chorsia/MARTSIA-KoB-API/blockchain/contracts/StateContract.sol",
  "compiler": {
    "name": "solc",
    "version": "0.8.17+commit.8df45f5f.Emscripten.clang"
  },
  "schemaVersion": "3.4.11",
  "updatedAt": "2024-09-13T14:02:48.244Z",
  "devdoc": {
    "kind": "dev",
    "methods": {},
    "version": 1
  },
  "userdoc": {
    "kind": "user",
    "methods": {},
    "version": 1
  }
}