{
  "contractName": "StateContract",
  "abi": [
    {
      "inputs": [
        {
          "internalType": "address",
          "name": "confidentialContract",
          "type": "address"
        }
      ],
      "stateMutability": "nonpayable",
      "type": "constructor"
    },
    {
      "anonymous": false,
      "inputs": [
        {
          "indexed": false,
          "internalType": "uint64",
          "name": "",
          "type": "uint64"
        },
        {
          "indexed": false,
          "internalType": "uint64",
          "name": "",
          "type": "uint64"
        }
      ],
      "name": "functionDone",
      "type": "event"
    },
    {
      "inputs": [
        {
          "internalType": "uint64",
          "name": "instanceId",
          "type": "uint64"
        },
        {
          "internalType": "bytes32",
          "name": "_var",
          "type": "bytes32"
        }
      ],
      "name": "getPublicVaraible",
      "outputs": [
        {
          "internalType": "bytes32",
          "name": "",
          "type": "bytes32"
        }
      ],
      "stateMutability": "view",
      "type": "function",
      "constant": true
    },
    {
      "inputs": [
        {
          "internalType": "uint64",
          "name": "instanceId",
          "type": "uint64"
        }
      ],
      "name": "getInstancePolicy",
      "outputs": [
        {
          "internalType": "bytes",
          "name": "",
          "type": "bytes"
        }
      ],
      "stateMutability": "view",
      "type": "function",
      "constant": true
    },
    {
      "inputs": [
        {
          "internalType": "uint64",
          "name": "instanceId",
          "type": "uint64"
        },
        {
          "internalType": "uint64",
          "name": "msgToExecute",
          "type": "uint64"
        },
        {
          "internalType": "address",
          "name": "user",
          "type": "address"
        }
      ],
      "name": "getConfidentialChecks",
      "outputs": [
        {
          "internalType": "bool",
          "name": "",
          "type": "bool"
        }
      ],
      "stateMutability": "view",
      "type": "function",
      "constant": true
    },
    {
      "inputs": [
        {
          "internalType": "uint64",
          "name": "instanceId",
          "type": "uint64"
        },
        {
          "internalType": "uint64",
          "name": "_element",
          "type": "uint64"
        }
      ],
      "name": "getInstanceElement",
      "outputs": [
        {
          "components": [
            {
              "internalType": "enum StateContract.ElementState",
              "name": "state",
              "type": "uint8"
            },
            {
              "internalType": "enum StateContract.ElementType",
              "name": "elementType",
              "type": "uint8"
            },
            {
              "internalType": "bytes32",
              "name": "role",
              "type": "bytes32"
            },
            {
              "internalType": "uint64[]",
              "name": "next",
              "type": "uint64[]"
            },
            {
              "internalType": "uint64[]",
              "name": "previous",
              "type": "uint64[]"
            }
          ],
          "internalType": "struct StateContract.Element",
          "name": "",
          "type": "tuple"
        }
      ],
      "stateMutability": "view",
      "type": "function",
      "constant": true
    },
    {
      "inputs": [
        {
          "internalType": "uint64",
          "name": "instanceId",
          "type": "uint64"
        },
        {
          "internalType": "uint64",
          "name": "element",
          "type": "uint64"
        }
      ],
      "name": "getCondition",
      "outputs": [
        {
          "components": [
            {
              "internalType": "bytes32",
              "name": "publicVar",
              "type": "bytes32"
            },
            {
              "internalType": "enum StateContract.Operator",
              "name": "op",
              "type": "uint8"
            },
            {
              "internalType": "bytes32",
              "name": "value",
              "type": "bytes32"
            }
          ],
          "internalType": "struct StateContract.Condition",
          "name": "",
          "type": "tuple"
        }
      ],
      "stateMutability": "view",
      "type": "function",
      "constant": true
    },
    {
      "inputs": [
        {
          "internalType": "uint64",
          "name": "instanceId",
          "type": "uint64"
        },
        {
          "internalType": "uint64",
          "name": "element",
          "type": "uint64"
        },
        {
          "internalType": "bytes32",
          "name": "varName",
          "type": "bytes32"
        }
      ],
      "name": "getAllowedVar",
      "outputs": [
        {
          "internalType": "bool",
          "name": "",
          "type": "bool"
        }
      ],
      "stateMutability": "view",
      "type": "function",
      "constant": true
    },
    {
      "inputs": [
        {
          "internalType": "uint64",
          "name": "instanceId",
          "type": "uint64"
        },
        {
          "internalType": "bytes32[]",
          "name": "_roles",
          "type": "bytes32[]"
        },
        {
          "internalType": "address[]",
          "name": "users",
          "type": "address[]"
        },
        {
          "internalType": "uint64[]",
          "name": "elements",
          "type": "uint64[]"
        },
        {
          "internalType": "uint64[][]",
          "name": "nextElements",
          "type": "uint64[][]"
        },
        {
          "internalType": "uint64[][]",
          "name": "previousElements",
          "type": "uint64[][]"
        },
        {
          "internalType": "enum StateContract.ElementType[]",
          "name": "types",
          "type": "uint8[]"
        },
        {
          "internalType": "bytes32",
          "name": "policy1",
          "type": "bytes32"
        },
        {
          "internalType": "bytes32",
          "name": "policy2",
          "type": "bytes32"
        }
      ],
      "name": "instantiateProcess",
      "outputs": [],
      "stateMutability": "nonpayable",
      "type": "function"
    },
    {
      "inputs": [
        {
          "internalType": "uint64",
          "name": "instanceId",
          "type": "uint64"
        },
        {
          "internalType": "uint64[]",
          "name": "elementWithConditions",
          "type": "uint64[]"
        },
        {
          "internalType": "uint64[]",
          "name": "elementWithPublicVar",
          "type": "uint64[]"
        },
        {
          "internalType": "bytes32[]",
          "name": "publicVars",
          "type": "bytes32[]"
        },
        {
          "internalType": "enum StateContract.Operator[]",
          "name": "operators",
          "type": "uint8[]"
        },
        {
          "internalType": "bytes32[]",
          "name": "values",
          "type": "bytes32[]"
        }
      ],
      "name": "createConditions",
      "outputs": [],
      "stateMutability": "nonpayable",
      "type": "function"
    },
    {
      "inputs": [
        {
          "internalType": "uint64",
          "name": "instanceId",
          "type": "uint64"
        },
        {
          "internalType": "uint64",
          "name": "msgToExecute",
          "type": "uint64"
        }
      ],
      "name": "checkEventBased",
      "outputs": [],
      "stateMutability": "nonpayable",
      "type": "function"
    },
    {
      "inputs": [
        {
          "internalType": "uint64",
          "name": "instanceId",
          "type": "uint64"
        },
        {
          "internalType": "uint64",
          "name": "msgToExecute",
          "type": "uint64"
        },
        {
          "internalType": "bytes32[]",
          "name": "publicVarNames",
          "type": "bytes32[]"
        },
        {
          "internalType": "bytes32[]",
          "name": "publicVarValues",
          "type": "bytes32[]"
        }
      ],
      "name": "setPublicvariables",
      "outputs": [],
      "stateMutability": "nonpayable",
      "type": "function"
    },
    {
      "inputs": [
        {
          "internalType": "uint64",
          "name": "instanceId",
          "type": "uint64"
        },
        {
          "internalType": "uint64",
          "name": "elementToExecute",
          "type": "uint64"
        }
      ],
      "name": "changeStatus",
      "outputs": [],
      "stateMutability": "nonpayable",
      "type": "function"
    },
    {
      "inputs": [
        {
          "internalType": "uint64",
          "name": "instanceId",
          "type": "uint64"
        },
        {
          "internalType": "uint64",
          "name": "element",
          "type": "uint64"
        }
      ],
      "name": "ex_split",
      "outputs": [],
      "stateMutability": "nonpayable",
      "type": "function"
    }
  ],
  "bytecode": "0x608060405273c061c73ad60d5bdc7cd4012d0b5b87cd3166ced86000806101000a81548173ffffffffffffffffffffffffffffffffffffffff021916908373ffffffffffffffffffffffffffffffffffffffff1602179055503480156200006557600080fd5b5060405162003a3438038062003a3483398181016040528101906200008b919062000164565b60008190508073ffffffffffffffffffffffffffffffffffffffff1663475a95386040518163ffffffff1660e01b8152600401600060405180830381600087803b158015620000d957600080fd5b505af1158015620000ee573d6000803e3d6000fd5b50505050505062000196565b600080fd5b600073ffffffffffffffffffffffffffffffffffffffff82169050919050565b60006200012c82620000ff565b9050919050565b6200013e816200011f565b81146200014a57600080fd5b50565b6000815190506200015e8162000133565b92915050565b6000602082840312156200017d576200017c620000fa565b5b60006200018d848285016200014d565b91505092915050565b61388e80620001a66000396000f3fe608060405234801561001057600080fd5b50600436106100b45760003560e01c80639b1e55bd116100715780639b1e55bd14610189578063a661bede146101b9578063d9ecd006146101d5578063e075167c146101f1578063f181624c14610221578063fd2a6ead14610251576100b4565b806311ab4a9d146100b957806324884957146100d557806350352802146100f15780635a3978841461010d5780637e693e491461013d5780638617bb4b1461016d575b600080fd5b6100d360048036038101906100ce919061291a565b610281565b005b6100ef60048036038101906100ea9190612e96565b6108d5565b005b61010b6004803603810190610106919061291a565b610d84565b005b61012760048036038101906101229190613008565b610f57565b6040516101349190613076565b60405180910390f35b6101576004803603810190610152919061291a565b610fd0565b6040516101649190613159565b60405180910390f35b6101876004803603810190610182919061325c565b611089565b005b6101a3600480360381019061019e9190613375565b6112c0565b6040516101b091906133c4565b60405180910390f35b6101d360048036038101906101ce91906133df565b611306565b005b6101ef60048036038101906101ea919061291a565b611420565b005b61020b6004803603810190610206919061347e565b6116eb565b6040516102189190613076565b60405180910390f35b61023b600480360381019061023691906134d1565b61190d565b604051610248919061357d565b60405180910390f35b61026b6004803603810190610266919061291a565b6119d6565b604051610278919061376a565b60405180910390f35b6000600160008467ffffffffffffffff1667ffffffffffffffff16815260200190815260200160002060000160008367ffffffffffffffff1667ffffffffffffffff1681526020019081526020016000209050600181600201805490501480156103ae5750600060048111156102fa576102f96130a0565b5b600160008567ffffffffffffffff1667ffffffffffffffff16815260200190815260200160002060030160008360020160008154811061033d5761033c61378c565b5b90600052602060002090600491828204019190066008029054906101000a900467ffffffffffffffff1667ffffffffffffffff1667ffffffffffffffff16815260200190815260200160002060010160009054906101000a900460ff1660048111156103ac576103ab6130a0565b5b145b156104cd576000600160008567ffffffffffffffff1667ffffffffffffffff1681526020019081526020016000206000016000836002016000815481106103f8576103f761378c565b5b90600052602060002090600491828204019190066008029054906101000a900467ffffffffffffffff1667ffffffffffffffff1667ffffffffffffffff168152602001908152602001600020905060018160000160006101000a81548160ff0219169083600281111561046e5761046d6130a0565b5b02179055506104bd8260020160008154811061048d5761048c61378c565b5b90600052602060002090600491828204019190066008029054906101000a900467ffffffffffffffff1685611bd8565b6104c78484611e5c565b506108d0565b60005b81600201805490508160ff1610156108ce576000600160008667ffffffffffffffff1667ffffffffffffffff1681526020019081526020016000206003016000846002018460ff16815481106105295761052861378c565b5b90600052602060002090600491828204019190066008029054906101000a900467ffffffffffffffff1667ffffffffffffffff1667ffffffffffffffff16815260200190815260200160002090506000600160008767ffffffffffffffff1667ffffffffffffffff1681526020019081526020016000206000016000856002018560ff16815481106105be576105bd61378c565b5b90600052602060002090600491828204019190066008029054906101000a900467ffffffffffffffff1667ffffffffffffffff1667ffffffffffffffff16815260200190815260200160002090506000600160008867ffffffffffffffff1667ffffffffffffffff16815260200190815260200160002060010160008460000154815260200190815260200160002054905060016004811115610664576106636130a0565b5b8360010160009054906101000a900460ff166004811115610688576106876130a0565b5b1480156106985750826002015481145b1561071b5760018260000160006101000a81548160ff021916908360028111156106c5576106c46130a0565b5b0217905550610716856002018560ff16815481106106e6576106e561378c565b5b90600052602060002090600491828204019190066008029054906101000a900467ffffffffffffffff1688611bd8565b6108ae565b6003600481111561072f5761072e6130a0565b5b8360010160009054906101000a900460ff166004811115610753576107526130a0565b5b1480156107635750826002015481115b156107e65760018260000160006101000a81548160ff021916908360028111156107905761078f6130a0565b5b02179055506107e1856002018560ff16815481106107b1576107b061378c565b5b90600052602060002090600491828204019190066008029054906101000a900467ffffffffffffffff1688611bd8565b6108ad565b6004808111156107f9576107f86130a0565b5b8360010160009054906101000a900460ff16600481111561081d5761081c6130a0565b5b14801561082d5750826002015481105b156108ac5760018260000160006101000a81548160ff0219169083600281111561085a576108596130a0565b5b02179055506108ab856002018560ff168154811061087b5761087a61378c565b5b90600052602060002090600491828204019190066008029054906101000a900467ffffffffffffffff1688611bd8565b5b5b5b6108b88787611e5c565b50505080806108c6906137f7565b9150506104d0565b505b505050565b600082600160008c67ffffffffffffffff1667ffffffffffffffff1681526020019081526020016000206005018190555081600160008c67ffffffffffffffff1667ffffffffffffffff1681526020019081526020016000206006018190555060005b87518160ff161015610d6d5761094c61275e565b600073ffffffffffffffffffffffffffffffffffffffff168a8360ff168151811061097a5761097961378c565b5b602002602001015173ffffffffffffffffffffffffffffffffffffffff1614610a5257898260ff16815181106109b3576109b261378c565b5b6020026020010151600160008e67ffffffffffffffff1667ffffffffffffffff16815260200190815260200160002060040160008d8560ff16815181106109fd576109fc61378c565b5b6020026020010151815260200190815260200160002060006101000a81548173ffffffffffffffffffffffffffffffffffffffff021916908373ffffffffffffffffffffffffffffffffffffffff1602179055505b60026008811115610a6657610a656130a0565b5b868360ff1681518110610a7c57610a7b61378c565b5b60200260200101516008811115610a9657610a956130a0565b5b14610b62576040518060a0016040528060006002811115610aba57610ab96130a0565b5b8152602001878460ff1681518110610ad557610ad461378c565b5b60200260200101516008811115610aef57610aee6130a0565b5b81526020018c8460ff1681518110610b0a57610b0961378c565b5b60200260200101518152602001898460ff1681518110610b2d57610b2c61378c565b5b60200260200101518152602001888460ff1681518110610b5057610b4f61378c565b5b60200260200101518152509050610c45565b6040518060a0016040528060016002811115610b8157610b806130a0565b5b8152602001878460ff1681518110610b9c57610b9b61378c565b5b60200260200101516008811115610bb657610bb56130a0565b5b81526020018c8460ff1681518110610bd157610bd061378c565b5b60200260200101518152602001898460ff1681518110610bf457610bf361378c565b5b60200260200101518152602001888460ff1681518110610c1757610c1661378c565b5b60200260200101518152509050888260ff1681518110610c3a57610c3961378c565b5b602002602001015192505b80600160008e67ffffffffffffffff1667ffffffffffffffff16815260200190815260200160002060000160008b8560ff1681518110610c8857610c8761378c565b5b602002602001015167ffffffffffffffff1667ffffffffffffffff16815260200190815260200160002060008201518160000160006101000a81548160ff02191690836002811115610cdd57610cdc6130a0565b5b021790555060208201518160000160016101000a81548160ff02191690836008811115610d0d57610d0c6130a0565b5b0217905550604082015181600101556060820151816002019080519060200190610d389291906127b4565b506080820151816003019080519060200190610d559291906127b4565b50905050508080610d65906137f7565b915050610938565b50610d788a82610d84565b50505050505050505050565b6000600160008467ffffffffffffffff1667ffffffffffffffff16815260200190815260200160002060000160008367ffffffffffffffff1667ffffffffffffffff1681526020019081526020016000209050610de18383611e5c565b60005b81600201805490508160ff161015610f18576000600160008667ffffffffffffffff1667ffffffffffffffff1681526020019081526020016000206000016000846002018460ff1681548110610e3d57610e3c61378c565b5b90600052602060002090600491828204019190066008029054906101000a900467ffffffffffffffff1667ffffffffffffffff1667ffffffffffffffff168152602001908152602001600020905060018160000160006101000a81548160ff02191690836002811115610eb357610eb26130a0565b5b0217905550610f04836002018360ff1681548110610ed457610ed361378c565b5b90600052602060002090600491828204019190066008029054906101000a900467ffffffffffffffff1686611bd8565b508080610f10906137f7565b915050610de4565b507fa09a3100a40a1aaef364ab44513d7fb46dda1a306b5615910007fc3faa4a61a78383604051610f4a92919061382f565b60405180910390a1505050565b6000600160008567ffffffffffffffff1667ffffffffffffffff16815260200190815260200160002060020160008467ffffffffffffffff1667ffffffffffffffff168152602001908152602001600020600083815260200190815260200160002060009054906101000a900460ff1690509392505050565b610fd8612870565b600160008467ffffffffffffffff1667ffffffffffffffff16815260200190815260200160002060030160008367ffffffffffffffff1667ffffffffffffffff168152602001908152602001600020604051806060016040529081600082015481526020016001820160009054906101000a900460ff166004811115611061576110606130a0565b5b6004811115611073576110726130a0565b5b8152602001600282015481525050905092915050565b60005b84518160ff16101561115d5760018060008967ffffffffffffffff1667ffffffffffffffff1681526020019081526020016000206002016000878460ff16815181106110db576110da61378c565b5b602002602001015167ffffffffffffffff1667ffffffffffffffff1681526020019081526020016000206000868460ff168151811061111d5761111c61378c565b5b6020026020010151815260200190815260200160002060006101000a81548160ff0219169083151502179055508080611155906137f7565b91505061108c565b5060005b85518160ff1610156112b7576040518060600160405280858360ff168151811061118e5761118d61378c565b5b60200260200101518152602001848360ff16815181106111b1576111b061378c565b5b602002602001015160048111156111cb576111ca6130a0565b5b8152602001838360ff16815181106111e6576111e561378c565b5b6020026020010151815250600160008967ffffffffffffffff1667ffffffffffffffff1681526020019081526020016000206003016000888460ff16815181106112335761123261378c565b5b602002602001015167ffffffffffffffff1667ffffffffffffffff1681526020019081526020016000206000820151816000015560208201518160010160006101000a81548160ff02191690836004811115611292576112916130a0565b5b02179055506040820151816002015590505080806112af906137f7565b915050611161565b50505050505050565b6000600160008467ffffffffffffffff1667ffffffffffffffff168152602001908152602001600020600101600083815260200190815260200160002054905092915050565b6000600160008667ffffffffffffffff1667ffffffffffffffff168152602001908152602001600020905060005b83518160ff16101561141857600115158260020160008767ffffffffffffffff1667ffffffffffffffff1681526020019081526020016000206000868460ff16815181106113855761138461378c565b5b6020026020010151815260200190815260200160002060009054906101000a900460ff1615150361140557828160ff16815181106113c6576113c561378c565b5b6020026020010151826001016000868460ff16815181106113ea576113e961378c565b5b60200260200101518152602001908152602001600020819055505b8080611410906137f7565b915050611334565b505050505050565b6000600160008467ffffffffffffffff1667ffffffffffffffff16815260200190815260200160002060000160008367ffffffffffffffff1667ffffffffffffffff1681526020019081526020016000206003016000815481106114875761148661378c565b5b90600052602060002090600491828204019190066008029054906101000a900467ffffffffffffffff1690506000600160008567ffffffffffffffff1667ffffffffffffffff16815260200190815260200160002060000160008367ffffffffffffffff1667ffffffffffffffff1681526020019081526020016000206040518060a00160405290816000820160009054906101000a900460ff166002811115611534576115336130a0565b5b6002811115611546576115456130a0565b5b81526020016000820160019054906101000a900460ff16600881111561156f5761156e6130a0565b5b6008811115611581576115806130a0565b5b8152602001600182015481526020016002820180548060200260200160405190810160405280929190818152602001828054801561161257602002820191906000526020600020906000905b82829054906101000a900467ffffffffffffffff1667ffffffffffffffff16815260200190600801906020826007010492830192600103820291508084116115cd5790505b505050505081526020016003820180548060200260200160405190810160405280929190818152602001828054801561169e57602002820191906000526020600020906000905b82829054906101000a900467ffffffffffffffff1667ffffffffffffffff16815260200190600801906020826007010492830192600103820291508084116116595790505b5050505050815250509050600760088111156116bd576116bc6130a0565b5b816020015160088111156116d4576116d36130a0565b5b036116e5576116e4818585611edb565b5b50505050565b60008383836000600160008567ffffffffffffffff1667ffffffffffffffff16815260200190815260200160002060000160008467ffffffffffffffff1667ffffffffffffffff168152602001908152602001600020600101549050600160008567ffffffffffffffff1667ffffffffffffffff168152602001908152602001600020600401600082815260200190815260200160002060009054906101000a900473ffffffffffffffffffffffffffffffffffffffff1673ffffffffffffffffffffffffffffffffffffffff168273ffffffffffffffffffffffffffffffffffffffff16146117da57600080fd5b8787600160088111156117f0576117ef6130a0565b5b600160008467ffffffffffffffff1667ffffffffffffffff16815260200190815260200160002060000160008367ffffffffffffffff1667ffffffffffffffff16815260200190815260200160002060000160019054906101000a900460ff166008811115611862576118616130a0565b5b1461186c57600080fd5b600160028111156118805761187f6130a0565b5b600160008467ffffffffffffffff1667ffffffffffffffff16815260200190815260200160002060000160008367ffffffffffffffff1667ffffffffffffffff16815260200190815260200160002060000160009054906101000a900460ff1660028111156118f2576118f16130a0565b5b146118fc57600080fd5b600196505050505050509392505050565b60606000604067ffffffffffffffff81111561192c5761192b612970565b5b6040519080825280601f01601f19166020018201604052801561195e5781602001600182028036833780820191505090505b5090506000600160008567ffffffffffffffff1667ffffffffffffffff1681526020019081526020016000206005015490506000600160008667ffffffffffffffff1667ffffffffffffffff168152602001908152602001600020600601549050816020840152806040840152829350505050919050565b6119de61275e565b600160008467ffffffffffffffff1667ffffffffffffffff16815260200190815260200160002060000160008367ffffffffffffffff1667ffffffffffffffff1681526020019081526020016000206040518060a00160405290816000820160009054906101000a900460ff166002811115611a5d57611a5c6130a0565b5b6002811115611a6f57611a6e6130a0565b5b81526020016000820160019054906101000a900460ff166008811115611a9857611a976130a0565b5b6008811115611aaa57611aa96130a0565b5b81526020016001820154815260200160028201805480602002602001604051908101604052809291908181526020018280548015611b3b57602002820191906000526020600020906000905b82829054906101000a900467ffffffffffffffff1667ffffffffffffffff1681526020019060080190602082600701049283019260010382029150808411611af65790505b5050505050815260200160038201805480602002602001604051908101604052809291908181526020018280548015611bc757602002820191906000526020600020906000905b82829054906101000a900467ffffffffffffffff1667ffffffffffffffff1681526020019060080190602082600701049283019260010382029150808411611b825790505b505050505081525050905092915050565b6000600160008367ffffffffffffffff1667ffffffffffffffff16815260200190815260200160002060000160008467ffffffffffffffff1667ffffffffffffffff168152602001908152602001600020905060036008811115611c3f57611c3e6130a0565b5b8160000160019054906101000a900460ff166008811115611c6357611c626130a0565b5b03611c7757611c728284610281565b611e57565b60046008811115611c8b57611c8a6130a0565b5b8160000160019054906101000a900460ff166008811115611caf57611cae6130a0565b5b03611cc357611cbe8284611fe0565b611e56565b60056008811115611cd757611cd66130a0565b5b8160000160019054906101000a900460ff166008811115611cfb57611cfa6130a0565b5b1480611d3c575060076008811115611d1657611d156130a0565b5b8160000160019054906101000a900460ff166008811115611d3a57611d396130a0565b5b145b15611d5057611d4b82846122e7565b611e55565b60066008811115611d6457611d636130a0565b5b8160000160019054906101000a900460ff166008811115611d8857611d876130a0565b5b03611d9c57611d9781836125e0565b611e54565b600880811115611daf57611dae6130a0565b5b8160000160019054906101000a900460ff166008811115611dd357611dd26130a0565b5b03611de757611de28284611e5c565b611e53565b60016008811115611dfb57611dfa6130a0565b5b8160000160019054906101000a900460ff166008811115611e1f57611e1e6130a0565b5b03611e525760018160000160006101000a81548160ff02191690836002811115611e4c57611e4b6130a0565b5b02179055505b5b5b5b5b5b505050565b6002600160008467ffffffffffffffff1667ffffffffffffffff16815260200190815260200160002060000160008367ffffffffffffffff1667ffffffffffffffff16815260200190815260200160002060000160006101000a81548160ff02191690836002811115611ed257611ed16130a0565b5b02179055505050565b60005b8360600151518160ff161015611fda578167ffffffffffffffff1684606001518260ff1681518110611f1357611f1261378c565b5b602002602001015167ffffffffffffffff1614611fc7576000600160008567ffffffffffffffff1667ffffffffffffffff168152602001908152602001600020600001600086606001518460ff1681518110611f7257611f7161378c565b5b602002602001015167ffffffffffffffff1667ffffffffffffffff16815260200190815260200160002060000160006101000a81548160ff02191690836002811115611fc157611fc06130a0565b5b02179055505b8080611fd2906137f7565b915050611ede565b50505050565b6000600160008467ffffffffffffffff1667ffffffffffffffff16815260200190815260200160002060000160008367ffffffffffffffff1667ffffffffffffffff1681526020019081526020016000206040518060a00160405290816000820160009054906101000a900460ff166002811115612061576120606130a0565b5b6002811115612073576120726130a0565b5b81526020016000820160019054906101000a900460ff16600881111561209c5761209b6130a0565b5b60088111156120ae576120ad6130a0565b5b8152602001600182015481526020016002820180548060200260200160405190810160405280929190818152602001828054801561213f57602002820191906000526020600020906000905b82829054906101000a900467ffffffffffffffff1667ffffffffffffffff16815260200190600801906020826007010492830192600103820291508084116120fa5790505b50505050508152602001600382018054806020026020016040519081016040528092919081815260200182805480156121cb57602002820191906000526020600020906000905b82829054906101000a900467ffffffffffffffff1667ffffffffffffffff16815260200190600801906020826007010492830192600103820291508084116121865790505b505050505081525050905060005b8160800151518160ff1610156122e1576000600160008667ffffffffffffffff1667ffffffffffffffff168152602001908152602001600020600001600084608001518460ff16815181106122315761223061378c565b5b602002602001015167ffffffffffffffff1667ffffffffffffffff16815260200190815260200160002090506002808111156122705761226f6130a0565b5b8160000160009054906101000a900460ff166002811115612294576122936130a0565b5b036122cd576122a38585611e5c565b6122cc83606001516000815181106122be576122bd61378c565b5b602002602001015186611bd8565b5b5080806122d9906137f7565b9150506121d9565b50505050565b6000600160008467ffffffffffffffff1667ffffffffffffffff16815260200190815260200160002060000160008367ffffffffffffffff1667ffffffffffffffff1681526020019081526020016000206040518060a00160405290816000820160009054906101000a900460ff166002811115612368576123676130a0565b5b600281111561237a576123796130a0565b5b81526020016000820160019054906101000a900460ff1660088111156123a3576123a26130a0565b5b60088111156123b5576123b46130a0565b5b8152602001600182015481526020016002820180548060200260200160405190810160405280929190818152602001828054801561244657602002820191906000526020600020906000905b82829054906101000a900467ffffffffffffffff1667ffffffffffffffff16815260200190600801906020826007010492830192600103820291508084116124015790505b50505050508152602001600382018054806020026020016040519081016040528092919081815260200182805480156124d257602002820191906000526020600020906000905b82829054906101000a900467ffffffffffffffff1667ffffffffffffffff168152602001906008019060208260070104928301926001038202915080841161248d5790505b50505050508152505090506124e78383611e5c565b60005b8160600151518160ff1610156125da576000600160008667ffffffffffffffff1667ffffffffffffffff168152602001908152602001600020600001600084606001518460ff16815181106125425761254161378c565b5b602002602001015167ffffffffffffffff1667ffffffffffffffff168152602001908152602001600020905060018160000160006101000a81548160ff02191690836002811115612596576125956130a0565b5b02179055506125c683606001518360ff16815181106125b8576125b761378c565b5b602002602001015186611bd8565b5080806125d2906137f7565b9150506124ea565b50505050565b60005b82600301805490508160ff1610156126e1576000600160008467ffffffffffffffff1667ffffffffffffffff1681526020019081526020016000206000016000856003018460ff168154811061263c5761263b61378c565b5b90600052602060002090600491828204019190066008029054906101000a900467ffffffffffffffff1667ffffffffffffffff1667ffffffffffffffff168152602001908152602001600020905060028081111561269d5761269c6130a0565b5b8160000160009054906101000a900460ff1660028111156126c1576126c06130a0565b5b146126cd57505061275a565b5080806126d9906137f7565b9150506125e3565b5060028260000160006101000a81548160ff0219169083600281111561270a576127096130a0565b5b0217905550612759826002016000815481106127295761272861378c565b5b90600052602060002090600491828204019190066008029054906101000a900467ffffffffffffffff1682611bd8565b5b5050565b6040518060a001604052806000600281111561277d5761277c6130a0565b5b815260200160006008811115612796576127956130a0565b5b81526020016000801916815260200160608152602001606081525090565b8280548282559060005260206000209060030160049004810192821561285f5791602002820160005b8382111561282957835183826101000a81548167ffffffffffffffff021916908367ffffffffffffffff16021790555092602001926008016020816007010492830192600103026127dd565b801561285d5782816101000a81549067ffffffffffffffff0219169055600801602081600701049283019260010302612829565b505b50905061286c91906128a9565b5090565b60405180606001604052806000801916815260200160006004811115612899576128986130a0565b5b8152602001600080191681525090565b5b808211156128c25760008160009055506001016128aa565b5090565b6000604051905090565b600080fd5b600080fd5b600067ffffffffffffffff82169050919050565b6128f7816128da565b811461290257600080fd5b50565b600081359050612914816128ee565b92915050565b60008060408385031215612931576129306128d0565b5b600061293f85828601612905565b925050602061295085828601612905565b9150509250929050565b600080fd5b6000601f19601f8301169050919050565b7f4e487b7100000000000000000000000000000000000000000000000000000000600052604160045260246000fd5b6129a88261295f565b810181811067ffffffffffffffff821117156129c7576129c6612970565b5b80604052505050565b60006129da6128c6565b90506129e6828261299f565b919050565b600067ffffffffffffffff821115612a0657612a05612970565b5b602082029050602081019050919050565b600080fd5b6000819050919050565b612a2f81612a1c565b8114612a3a57600080fd5b50565b600081359050612a4c81612a26565b92915050565b6000612a65612a60846129eb565b6129d0565b90508083825260208201905060208402830185811115612a8857612a87612a17565b5b835b81811015612ab15780612a9d8882612a3d565b845260208401935050602081019050612a8a565b5050509392505050565b600082601f830112612ad057612acf61295a565b5b8135612ae0848260208601612a52565b91505092915050565b600067ffffffffffffffff821115612b0457612b03612970565b5b602082029050602081019050919050565b600073ffffffffffffffffffffffffffffffffffffffff82169050919050565b6000612b4082612b15565b9050919050565b612b5081612b35565b8114612b5b57600080fd5b50565b600081359050612b6d81612b47565b92915050565b6000612b86612b8184612ae9565b6129d0565b90508083825260208201905060208402830185811115612ba957612ba8612a17565b5b835b81811015612bd25780612bbe8882612b5e565b845260208401935050602081019050612bab565b5050509392505050565b600082601f830112612bf157612bf061295a565b5b8135612c01848260208601612b73565b91505092915050565b600067ffffffffffffffff821115612c2557612c24612970565b5b602082029050602081019050919050565b6000612c49612c4484612c0a565b6129d0565b90508083825260208201905060208402830185811115612c6c57612c6b612a17565b5b835b81811015612c955780612c818882612905565b845260208401935050602081019050612c6e565b5050509392505050565b600082601f830112612cb457612cb361295a565b5b8135612cc4848260208601612c36565b91505092915050565b600067ffffffffffffffff821115612ce857612ce7612970565b5b602082029050602081019050919050565b6000612d0c612d0784612ccd565b6129d0565b90508083825260208201905060208402830185811115612d2f57612d2e612a17565b5b835b81811015612d7657803567ffffffffffffffff811115612d5457612d5361295a565b5b808601612d618982612c9f565b85526020850194505050602081019050612d31565b5050509392505050565b600082601f830112612d9557612d9461295a565b5b8135612da5848260208601612cf9565b91505092915050565b600067ffffffffffffffff821115612dc957612dc8612970565b5b602082029050602081019050919050565b60098110612de757600080fd5b50565b600081359050612df981612dda565b92915050565b6000612e12612e0d84612dae565b6129d0565b90508083825260208201905060208402830185811115612e3557612e34612a17565b5b835b81811015612e5e5780612e4a8882612dea565b845260208401935050602081019050612e37565b5050509392505050565b600082601f830112612e7d57612e7c61295a565b5b8135612e8d848260208601612dff565b91505092915050565b60008060008060008060008060006101208a8c031215612eb957612eb86128d0565b5b6000612ec78c828d01612905565b99505060208a013567ffffffffffffffff811115612ee857612ee76128d5565b5b612ef48c828d01612abb565b98505060408a013567ffffffffffffffff811115612f1557612f146128d5565b5b612f218c828d01612bdc565b97505060608a013567ffffffffffffffff811115612f4257612f416128d5565b5b612f4e8c828d01612c9f565b96505060808a013567ffffffffffffffff811115612f6f57612f6e6128d5565b5b612f7b8c828d01612d80565b95505060a08a013567ffffffffffffffff811115612f9c57612f9b6128d5565b5b612fa88c828d01612d80565b94505060c08a013567ffffffffffffffff811115612fc957612fc86128d5565b5b612fd58c828d01612e68565b93505060e0612fe68c828d01612a3d565b925050610100612ff88c828d01612a3d565b9150509295985092959850929598565b600080600060608486031215613021576130206128d0565b5b600061302f86828701612905565b935050602061304086828701612905565b925050604061305186828701612a3d565b9150509250925092565b60008115159050919050565b6130708161305b565b82525050565b600060208201905061308b6000830184613067565b92915050565b61309a81612a1c565b82525050565b7f4e487b7100000000000000000000000000000000000000000000000000000000600052602160045260246000fd5b600581106130e0576130df6130a0565b5b50565b60008190506130f1826130cf565b919050565b6000613101826130e3565b9050919050565b613111816130f6565b82525050565b60608201600082015161312d6000850182613091565b5060208201516131406020850182613108565b5060408201516131536040850182613091565b50505050565b600060608201905061316e6000830184613117565b92915050565b600067ffffffffffffffff82111561318f5761318e612970565b5b602082029050602081019050919050565b600581106131ad57600080fd5b50565b6000813590506131bf816131a0565b92915050565b60006131d86131d384613174565b6129d0565b905080838252602082019050602084028301858111156131fb576131fa612a17565b5b835b81811015613224578061321088826131b0565b8452602084019350506020810190506131fd565b5050509392505050565b600082601f8301126132435761324261295a565b5b81356132538482602086016131c5565b91505092915050565b60008060008060008060c08789031215613279576132786128d0565b5b600061328789828a01612905565b965050602087013567ffffffffffffffff8111156132a8576132a76128d5565b5b6132b489828a01612c9f565b955050604087013567ffffffffffffffff8111156132d5576132d46128d5565b5b6132e189828a01612c9f565b945050606087013567ffffffffffffffff811115613302576133016128d5565b5b61330e89828a01612abb565b935050608087013567ffffffffffffffff81111561332f5761332e6128d5565b5b61333b89828a0161322e565b92505060a087013567ffffffffffffffff81111561335c5761335b6128d5565b5b61336889828a01612abb565b9150509295509295509295565b6000806040838503121561338c5761338b6128d0565b5b600061339a85828601612905565b92505060206133ab85828601612a3d565b9150509250929050565b6133be81612a1c565b82525050565b60006020820190506133d960008301846133b5565b92915050565b600080600080608085870312156133f9576133f86128d0565b5b600061340787828801612905565b945050602061341887828801612905565b935050604085013567ffffffffffffffff811115613439576134386128d5565b5b61344587828801612abb565b925050606085013567ffffffffffffffff811115613466576134656128d5565b5b61347287828801612abb565b91505092959194509250565b600080600060608486031215613497576134966128d0565b5b60006134a586828701612905565b93505060206134b686828701612905565b92505060406134c786828701612b5e565b9150509250925092565b6000602082840312156134e7576134e66128d0565b5b60006134f584828501612905565b91505092915050565b600081519050919050565b600082825260208201905092915050565b60005b8381101561353857808201518184015260208101905061351d565b60008484015250505050565b600061354f826134fe565b6135598185613509565b935061356981856020860161351a565b6135728161295f565b840191505092915050565b600060208201905081810360008301526135978184613544565b905092915050565b600381106135b0576135af6130a0565b5b50565b60008190506135c18261359f565b919050565b60006135d1826135b3565b9050919050565b6135e1816135c6565b82525050565b600981106135f8576135f76130a0565b5b50565b6000819050613609826135e7565b919050565b6000613619826135fb565b9050919050565b6136298161360e565b82525050565b600081519050919050565b600082825260208201905092915050565b6000819050602082019050919050565b613664816128da565b82525050565b6000613676838361365b565b60208301905092915050565b6000602082019050919050565b600061369a8261362f565b6136a4818561363a565b93506136af8361364b565b8060005b838110156136e05781516136c7888261366a565b97506136d283613682565b9250506001810190506136b3565b5085935050505092915050565b600060a08301600083015161370560008601826135d8565b5060208301516137186020860182613620565b50604083015161372b6040860182613091565b5060608301518482036060860152613743828261368f565b9150506080830151848203608086015261375d828261368f565b9150508091505092915050565b6000602082019050818103600083015261378481846136ed565b905092915050565b7f4e487b7100000000000000000000000000000000000000000000000000000000600052603260045260246000fd5b7f4e487b7100000000000000000000000000000000000000000000000000000000600052601160045260246000fd5b600060ff82169050919050565b6000613802826137ea565b915060ff8203613815576138146137bb565b5b600182019050919050565b613829816128da565b82525050565b60006040820190506138446000830185613820565b6138516020830184613820565b939250505056fea26469706673582212208edac5592fe84f32eb3b1546da84182e00d73b8441bc631c880c8b101f06e9eb64736f6c63430008110033",
  "immutableReferences": {},
  "source": "pragma solidity >= 0.5.0 < 0.9.0;\r\nimport \"./ConfidentialContract.sol\";\r\n\r\ncontract StateContract{\r\n\r\n    enum ElementType {ELEMENT, MSG, START, EX_SPLIT, EX_JOIN, PAR_SPLIT, PAR_JOIN, EVENT_BASED, END}\r\n    enum ElementState {DISABLED, ENABLED, COMPLETED}\r\n    enum Operator {NO_CONDITION, EQ, NOT_EQ, G_THAN, L_THAN}\r\n    address stateContractAddress = 0xc061c73AD60d5BdC7cd4012d0B5b87cD3166ceD8;\r\n\r\n    event functionDone(uint64, uint64);\r\n\r\n    struct Instance {\r\n        mapping(uint64 => Element) allElements;\r\n        mapping(bytes32 => bytes32) publicVariables;\r\n        mapping(uint64 => mapping (bytes32 => bool)) allowedVars;\r\n        mapping(uint64 => Condition) conditions;\r\n        mapping(bytes32 => address) roles;\r\n        bytes32 policyPart1;\r\n        bytes32 policyPart2;\r\n    }\r\n\r\n    struct Element{\r\n        ElementState state;\r\n        ElementType elementType;\r\n        bytes32 role;\r\n        uint64[] next;\r\n        uint64[] previous;\r\n    }\r\n\r\n    struct Condition{\r\n        bytes32 publicVar;\r\n        Operator op;\r\n        bytes32 value;\r\n    }\r\n\r\n    mapping(uint64 => Instance) allInstances;\r\n\r\n    constructor(address confidentialContract){\r\n        ConfidentialContract m = ConfidentialContract(confidentialContract);\r\n        m.setStateAddress();\r\n    }\r\n\r\n    function getPublicVaraible(uint64 instanceId, bytes32 _var) public view returns(bytes32){\r\n        return allInstances[instanceId].publicVariables[_var];\r\n    }\r\n\r\n    function getInstancePolicy(uint64 instanceId) public view returns(bytes memory){\r\n        bytes memory joined = new bytes(64);\r\n        bytes32 p1 = allInstances[instanceId].policyPart1;\r\n        bytes32 p2 = allInstances[instanceId].policyPart2;\r\n        assembly {\r\n            mstore(add(joined, 32), p1)\r\n            mstore(add(joined, 64), p2)\r\n        }\r\n        return joined;\r\n    }\r\n\r\n    modifier UserRoleCheck(uint64 instanceId, uint64 msgToExecute, address user) {\r\n        bytes32 enabledRole = allInstances[instanceId].allElements[msgToExecute].role;\r\n        require(user == allInstances[instanceId].roles[enabledRole]);\r\n        _;\r\n    }\r\n\r\n\r\n    modifier ElementStatusCheck(uint64 instanceId, uint64 msgToExecute) {\r\n        require(allInstances[instanceId].allElements[msgToExecute].elementType == ElementType.MSG);\r\n        require(allInstances[instanceId].allElements[msgToExecute].state == ElementState.ENABLED);\r\n        _;\r\n    }\r\n\r\n    function getConfidentialChecks(uint64 instanceId, uint64 msgToExecute, address user) public view UserRoleCheck(instanceId, msgToExecute, user)\r\n    ElementStatusCheck(instanceId, msgToExecute) returns(bool){\r\n        return true;\r\n    }\r\n\r\n    modifier StateContract() {\r\n        require(stateContractAddress == msg.sender);\r\n        _;\r\n    }\r\n\r\n    function getInstanceElement(uint64 instanceId, uint64 _element) public view returns(Element memory){\r\n        return allInstances[instanceId].allElements[_element];\r\n    }\r\n\r\n    function getCondition(uint64 instanceId, uint64 element) public view returns(Condition memory){\r\n        return allInstances[instanceId].conditions[element];\r\n    }\r\n\r\n    function getAllowedVar(uint64 instanceId, uint64 element, bytes32 varName) public view returns(bool){\r\n        return allInstances[instanceId].allowedVars[element][varName];\r\n    }\r\n\r\n    function instantiateProcess(uint64 instanceId, bytes32[] memory _roles, address[] memory users, uint64[] memory elements,\r\n        uint64[][] memory nextElements, uint64[][] memory previousElements, ElementType[] memory types, \r\n        bytes32 policy1, bytes32 policy2) public{\r\n        uint64 startEvent;\r\n        allInstances[instanceId].policyPart1 = policy1;\r\n        allInstances[instanceId].policyPart2 = policy2;\r\n        for(uint8 i = 0; i < elements.length; i++){\r\n            Element memory e;\r\n            if(users[i] != address(0x0)){\r\n                allInstances[instanceId].roles[_roles[i]] = users[i];\r\n            }\r\n            if(types[i] != ElementType.START){\r\n                e = Element(ElementState.DISABLED, types[i], _roles[i], nextElements[i], previousElements[i]);\r\n            }else{\r\n                e = Element(ElementState.ENABLED, types[i], _roles[i], nextElements[i], previousElements[i]);\r\n                startEvent = elements[i];\r\n            }\r\n            allInstances[instanceId].allElements[elements[i]] = e;\r\n        }\r\n        changeStatus(instanceId, startEvent);\r\n    }\r\n\r\n    \r\n    function createConditions(uint64 instanceId, uint64[] memory elementWithConditions, uint64[] memory elementWithPublicVar,\r\n        bytes32[] memory publicVars, Operator[] memory operators, bytes32[] memory values) public{\r\n        for(uint8 i = 0; i < elementWithPublicVar.length; i++){\r\n            allInstances[instanceId].allowedVars[elementWithPublicVar[i]][publicVars[i]] = true;\r\n        }\r\n        for(uint8 i = 0; i < elementWithConditions.length; i++){\r\n            allInstances[instanceId].conditions[elementWithConditions[i]] = Condition(publicVars[i], operators[i], values[i]);\r\n        }\r\n    }\r\n\r\n   \r\n    function checkEventBased(uint64 instanceId, uint64 msgToExecute) public {\r\n        uint64 previousId = allInstances[instanceId].allElements[msgToExecute].previous[0];\r\n        Element memory previousElement = allInstances[instanceId].allElements[previousId];\r\n        if(previousElement.elementType == ElementType.EVENT_BASED){\r\n            eventBased(previousElement, instanceId, msgToExecute);\r\n        }\r\n    }\r\n\r\n\r\n    function setPublicvariables(uint64 instanceId, uint64 msgToExecute, bytes32[] memory publicVarNames, bytes32[] memory publicVarValues) public {\r\n        Instance storage currentInstance = allInstances[instanceId];\r\n        for(uint8 i = 0; i < publicVarNames.length; i++){\r\n            if(currentInstance.allowedVars[msgToExecute][publicVarNames[i]] == true){\r\n                currentInstance.publicVariables[publicVarNames[i]] = publicVarValues[i];\r\n            }\r\n        }\r\n    }\r\n\r\n    function executeGateway(uint64 elementToExecute, uint64 instanceId) internal {\r\n        Element storage element = allInstances[instanceId].allElements[elementToExecute];\r\n        if(element.elementType == ElementType.EX_SPLIT){\r\n            ex_split(instanceId, elementToExecute);\r\n        }else if(element.elementType == ElementType.EX_JOIN){\r\n            ex_join(instanceId, elementToExecute);\r\n        }else if(element.elementType == ElementType.PAR_SPLIT || element.elementType == ElementType.EVENT_BASED){\r\n            par_event_split(instanceId, elementToExecute);\r\n        }else if(element.elementType == ElementType.PAR_JOIN){\r\n            par_join(element, instanceId);\r\n        }else if(element.elementType == ElementType.END){\r\n            setCompleted(instanceId, elementToExecute);\r\n        }else if(element.elementType == ElementType.MSG){\r\n            element.state = ElementState.ENABLED;\r\n        }\r\n    }\r\n\r\n\r\n    function changeStatus(uint64 instanceId, uint64 elementToExecute) public {\r\n        Element storage currentElement = allInstances[instanceId].allElements[elementToExecute];\r\n        setCompleted(instanceId, elementToExecute);\r\n        for(uint8 i = 0; i < currentElement.next.length; i++){\r\n            Element storage nextElement = allInstances[instanceId].allElements[currentElement.next[i]];\r\n            nextElement.state = ElementState.ENABLED;\r\n            executeGateway(currentElement.next[i], instanceId);\r\n        }\r\n        emit functionDone(instanceId, elementToExecute);\r\n\r\n    }\r\n\r\n    function par_event_split(uint64 instanceId, uint64 element) internal {\r\n        Element memory gateway = allInstances[instanceId].allElements[element];\r\n        setCompleted(instanceId, element);\r\n        for(uint8 i = 0; i < gateway.next.length; i++){\r\n            Element storage e = allInstances[instanceId].allElements[gateway.next[i]];\r\n            e.state = ElementState.ENABLED;\r\n            executeGateway(gateway.next[i], instanceId);\r\n        }\r\n    }\r\n\r\n    function par_join(Element storage gateway, uint64 instanceId) internal {\r\n        for(uint8 i = 0; i < gateway.previous.length; i++){\r\n            Element storage e = allInstances[instanceId].allElements[gateway.previous[i]];\r\n            if(e.state != ElementState.COMPLETED){\r\n                return;\r\n            }\r\n        }\r\n        gateway.state = ElementState.COMPLETED;\r\n        executeGateway(gateway.next[0], instanceId);\r\n    }\r\n\r\n    \r\n    function eventBased(Element memory gateway, uint64 instanceId, uint64 msgToExecute) internal {\r\n        for(uint8 i = 0; i < gateway.next.length; i ++){\r\n            if(gateway.next[i] != msgToExecute){\r\n                allInstances[instanceId].allElements[gateway.next[i]].state = ElementState.DISABLED;\r\n            }\r\n        }\r\n    }\r\n\r\n    function ex_join(uint64 instanceId, uint64 element) internal {\r\n        Element memory gateway = allInstances[instanceId].allElements[element];\r\n        for(uint8 i = 0; i < gateway.previous.length; i++){\r\n            Element storage e = allInstances[instanceId].allElements[gateway.previous[i]];\r\n            if(e.state == ElementState.COMPLETED){\r\n                setCompleted(instanceId, element);\r\n                executeGateway(gateway.next[0], instanceId);\r\n            }\r\n        }\r\n    }\r\n\r\n\r\n    function ex_split(uint64 instanceId, uint64 element) public {\r\n        Element storage gateway = allInstances[instanceId].allElements[element];\r\n        if(gateway.next.length == 1 && allInstances[instanceId].conditions[gateway.next[0]].op == Operator.NO_CONDITION){\r\n            Element storage nextElement = allInstances[instanceId].allElements[gateway.next[0]];\r\n            nextElement.state = ElementState.ENABLED;\r\n            executeGateway(gateway.next[0], instanceId);\r\n            setCompleted(instanceId, element);\r\n        }else{\r\n            for(uint8 i = 0; i < gateway.next.length; i++){\r\n                Condition storage c = allInstances[instanceId].conditions[gateway.next[i]];\r\n                Element storage nextElement = allInstances[instanceId].allElements[gateway.next[i]];\r\n                bytes32 publicVar = allInstances[instanceId].publicVariables[c.publicVar];\r\n                if(c.op == Operator.EQ && publicVar == c.value){\r\n                    nextElement.state = ElementState.ENABLED;                    \r\n                    executeGateway(gateway.next[i], instanceId);\r\n                }else if(c.op == Operator.G_THAN && publicVar > c.value){\r\n                    nextElement.state = ElementState.ENABLED;\r\n                    executeGateway(gateway.next[i], instanceId);\r\n                }else if(c.op == Operator.L_THAN && publicVar < c.value){\r\n                    nextElement.state = ElementState.ENABLED;\r\n                    executeGateway(gateway.next[i], instanceId);\r\n                }\r\n                setCompleted(instanceId, element);\r\n            }\r\n        }\r\n    }\r\n\r\n    function setCompleted(uint64 instanceId, uint64 element) internal {\r\n        allInstances[instanceId].allElements[element].state = ElementState.COMPLETED;\r\n    }\r\n\r\n\r\n}\r\n",
  "sourcePath": "/MARTSIA-KoB-API/blockchain/contracts/StateContract.sol",
  "compiler": {
    "name": "solc",
    "version": "0.8.17+commit.8df45f5f.Emscripten.clang"
  },
  "schemaVersion": "3.4.11",
  "updatedAt": "2025-03-17T17:12:07.344Z",
  "networkType": "ethereum",
  "devdoc": {
    "kind": "dev",
    "methods": {},
    "version": 1
  },
  "userdoc": {
    "kind": "user",
    "methods": {},
    "version": 1
  }
}